:100000000C9446000C9465000C9465000C946500FB
:100010000C9465000C9465000C9465000C946500CC
:100020000C9465000C9465000C9465000C946500BC
:100030000C9465000C9465000C9465000C946500AC
:100040000C9465000C9465000C9465000C9465009C
:100050000C9465000C9465000C9465000C9465008C
:100060000C9465000C9465000C9465000C9465007C
:100070000C9465000C9465000C9465000C9465006C
:100080000C9465000C9465000C94650011241FBE4F
:10009000CFEFD0E4DEBFCDBF11E0A0E0B1E0ECE3F4
:1000A000F6E000E00BBF02C007900D92AE30B10742
:1000B000D9F711E0AEE0B1E001C01D92A431B10763
:1000C000E1F70E9495010C941C030C940000CF935F
:1000D000C82F8A3019F48DE00E9467009091C0000B
:1000E00095FFFCCFC093C60080E090E0CF910895CB
:1000F000CF92DF92EF92FF926B017C0120910E0173
:1001000030910F0140911001509111010E94A30103
:10011000882309F458C020E030E0A901C701B601E6
:100120000E94A301811106C0E1E9F0E0808188709E
:10013000808305C0E1E9F0E080818360808328E569
:1001400039E344E75FE3C701B6010E94A3018823B6
:100150003CF48FEF9FEF909399008093980027C015
:1001600020E034E244EF56E4C701B6010E94B50234
:1001700018162CF4109299001092980018C020E0E4
:1001800030E040E053E4C701B6010E94B9029B0190
:10019000AC0160E074E284EF9AE40E94A7010E943F
:1001A0000F0261507109709399006093980010924A
:1001B000950010929400C0920E01D0920F01E0922F
:1001C0001001F0921101FF90EF90DF90CF90089511
:1001D00080E4809390008BE08093910060E070E079
:1001E000CB010E9478000895109290001092910027
:1001F000089580911201909113018130910589F148
:1002000040F08230910509F440C0039709F451C0D1
:1002100063C080B190E08095909587709927823077
:10022000910561F08430910581F00197A9F481E096
:1002300090E090931301809312014EC082E090E011
:10024000909313018093120147C083E090E0909354
:1002500013018093120140C01092130110921201F9
:100260003BC080B190E08095909587709927019769
:1002700039F481E090E090931301809312012CC037
:10028000109213011092120127C080B190E0809566
:10029000909587709927029739F482E090E09093C7
:1002A00013018093120118C01092130110921201D1
:1002B00013C080B190E0809590958770992704973E
:1002C00039F483E090E0909313018093120104C00D
:1002D000109213011092120180911201909113015A
:1002E0008130910569F030F08230910581F00397FB
:1002F000A9F0089560E070E0CB010E9478000895B5
:1003000064EA70ED82E893E40E94780008956BE758
:1003100074ED82E993E40E947800089564EA70ED38
:1003200084EA93E40E947800089511B88FEF82B9AF
:1003300084B915B80E94E8001092130110921201BE
:100340000E94F900FDCF9CD008F481E008950CD004
:10035000D2C0CAD040F0C1D030F021F45F3F19F0D4
:10036000B3C05111FCC0B6C0D7D098F39923C9F3DC
:100370005523B1F3951B550BBB27AA2762177307AB
:10038000840738F09F5F5F4F220F331F441FAA1F5F
:10039000A9F333D00E2E3AF0E0E830D0915050401F
:1003A000E695001CCAF729D0FE2F27D0660F771FCD
:1003B000881FBB1F261737074807AB07B0E809F0AF
:1003C000BB0B802DBF01FF2793585F4F2AF09E3F44
:1003D000510568F079C0C3C05F3FECF3983EDCF391
:1003E000869577956795B795F7959F5FC9F7880FBD
:1003F000911D9695879597F90895E1E0660F771F0F
:10040000881FBB1F621773078407BA0720F0621B9F
:10041000730B840BBA0BEE1F88F7E095089504D098
:100420006894B1119CC008957FD088F09F5790F0D8
:10043000B92F9927B751A0F0D1F0660F771F881F09
:10044000991F1AF0BA95C9F712C0B13081F086D061
:10045000B1E0089583C0672F782F8827B85F39F0FF
:10046000B93FCCF3869577956795B395D9F73EF468
:1004700090958095709561957F4F8F4F9F4F089510
:10048000990F0008550FAA0BE0E8FEEF16161706A5
:10049000E807F907C0F012161306E407F50798F00D
:1004A000621B730B840B950B39F40A2661F0232B26
:1004B000242B252B21F408950A2609F4A140A695A2
:1004C0008FEF811D811D089597F99F6780E870E087
:1004D00060E008959FEF80EC089500240A941616BA
:1004E000170618060906089500240A941216130622
:1004F000140605060895092E0394000C11F48823B0
:1005000052F0BB0F40F4BF2B11F460FF04C06F5FCB
:100510007F4F8F4F9F4F089557FD9058440F551FA1
:1005200059F05F3F71F04795880F97FB991F61F075
:100530009F3F79F087950895121613061406551FEC
:10054000F2CF4695F1DF08C0161617061806991F58
:10055000F1CF86957105610508940895E894BB274D
:1005600066277727CB0197F908958ADF08F48FEF84
:1005700008950BD0C0CFB1DF28F0B6DF18F0952377
:1005800009F0A2CFA7CF1124EACFC6DFA0F3959F31
:10059000D1F3950F50E0551F629FF001729FBB276A
:1005A000F00DB11D639FAA27F00DB11DAA1F649F16
:1005B0006627B00DA11D661F829F2227B00DA11DC9
:1005C000621F739FB00DA11D621F839FA00D611D4F
:1005D000221F749F3327A00D611D231F849F600D70
:1005E000211D822F762F6A2F11249F5750408AF0A9
:1005F000E1F088234AF0EE0FFF1FBB1F661F771F35
:10060000881F91505040A9F79E3F510570F05CCF74
:10061000A6CF5F3FECF3983EDCF386957795679520
:10062000B795F795E7959F5FC1F7FE2B880F911D52
:0C0630009695879597F90895F894FFCFF0
:0E063C00000000020000000067000000000047
:00000001FF
