:100000000C9446000C945D000C945D000C945D0013
:100010000C945D000C945D000C945D000C945D00EC
:100020000C945D000C945D000C945D000C945D00DC
:100030000C945D000C945D000C945D000C945D00CC
:100040000C945D000C945D000C945D000C945D00BC
:100050000C945D000C945D000C945D000C945D00AC
:100060000C945D000C945D000C945D000C945D009C
:100070000C945D000C945D000C945D000C945D008C
:100080000C945D000C945D000C945D0011241FBE67
:10009000CFEFD0E4DEBFCDBF11E0A0E0B1E0EEE0F5
:1000A000F1E000E00BBF02C007900D92AE30B10747
:1000B000D9F70E9476000C9485000C940000CF9331
:1000C000C82F8A3019F48DE00E945F009091C00023
:1000D00095FFFCCFC093C60080E090E0CF910895DB
:1000E0008295807F089582958F70089511B88FEF63
:1000F00084B915B887B918B880B10E94730085B962
:0E01000080B10E94700088B9F7CFF894FFCF4D
:0E010E0000000002000000005F000000000082
:00000001FF
