:100000000C9446000C9465000C9465000C946500FB
:100010000C9465000C9465000C9465000C946500CC
:100020000C9465000C9465000C9465000C946500BC
:100030000C9465000C94A3000C9465000C9465006E
:100040000C9465000C9465000C9465000C9465009C
:100050000C9465000C9465000C9465000C9465008C
:100060000C9465000C9465000C9465000C9465007C
:100070000C9465000C9465000C9465000C9465006C
:100080000C9465000C9465000C94650011241FBE4F
:10009000CFEFD0E4DEBFCDBF11E0A0E0B1E0E8E6F5
:1000A000F4E000E00BBF02C007900D92A231B1074F
:1000B000D9F711E0A2E1B1E001C01D92A032B10771
:1000C000E1F70E94CD010C9432020C940000CF9312
:1000D000C82F8A3019F48DE00E9467009091C0000B
:1000E00095FFFCCFC093C60080E090E0CF910895CB
:1000F0008BE0809381008FE090E090938900809363
:10010000880082E080936F00109285001092840036
:1001100080910E0190910F01A0911001B0911101F9
:100120008093140190931501A0931601B0931701C9
:100130008FB780688FBF089510928100089581E085
:100140008093180108951F920F920FB60F921124F9
:100150000BB60F922F933F934F935F936F937F93C1
:100160008F939F93AF93BF93EF93FF93809114016D
:1001700090911501A0911601B09117010197A10965
:10018000B1098093140190931501A0931601B093C7
:100190001701892B8A2B8B2B91F40E949F00809151
:1001A0000E0190910F01A0911001B0911101809367
:1001B000140190931501A0931601B0931701FF91BC
:1001C000EF91BF91AF919F918F917F916F915F91CF
:1001D0004F913F912F910F900BBE0F900FBE0F903C
:1001E0001F90189560930E0170930F01809310017A
:1001F000909311016093140170931501809316017F
:1002000090931701089580911A0190911B018130FC
:10021000910571F030F08230910589F00397B1F0CB
:100220001BC081E090E090931B0180931A0114C0E1
:1002300082E090E090931B0180931A010DC083E04F
:1002400090E090931B0180931A0106C081E090E03A
:1002500090931B0180931A0180911A0190911B01C8
:100260008230910549F08330910551F0019759F49E
:1002700081E080931301089582E080931301089533
:1002800084E080931301089580911E0190911F01D5
:100290008130910559F018F0029779F014C082E08E
:1002A00090E090931F0180931E010DC082E090E0CA
:1002B00090931F0180931E0106C081E090E090930F
:1002C0001F0180931E0180911E0190911F018130BA
:1002D000910539F018F0029741F00895109212013B
:1002E000089588E0809312010895109212010895F4
:1002F00080911C0190911D018130910559F018F0F9
:100300000297D1F031C081E090E090931D0180937D
:100310001C012AC010921901009907C082E090E0E8
:1003200090931D0180931C011FC081E090E0909389
:100330001D0180931C0118C000990BC08091190108
:10034000823038F482E090E090931D0180931C018C
:100350000BC0809119018F5F8093190181E090E0BB
:1003600090931D0180931C0180911C0190911D01AF
:100370008130910519F0029741F008959091120192
:1003800080911301892B85B9089590911201809174
:100390001301892B806185B908958FEF84B915B851
:1003A00061E070E080E090E00E94F2000E9478003E
:1003B00010921B0110921A0110921F0110921E013F
:1003C00010921D0110921C01C12CD12C7601689451
:1003D000C1F80F2EF8EE4F2EF3E05F2E612C712C3A
:1003E000F02D0F2EFCE28F2E99249394A12CB12C8A
:1003F000F02D8CE2881681E09806A104B10428F063
:100400000E940301812C912C540188EE481683E050
:1004100058066104710428F00E944401412C512CBB
:10042000320182E0C816D104E104F10428F00E94F0
:100430007801C12CD12C7601809118018823E1F339
:10044000109218018FEF881A980AA80AB80A8FEF3D
:10045000481A580A680A780A8FEFC81AD80AE80AB0
:08046000F80AC7CFF894FFCFA2
:10046800000000020000000067000000000001001A
:02047800000082
:00000001FF
