:100000000C9446000C945D000C945D000C945D0013
:100010000C945D000C945D000C945D000C945D00EC
:100020000C945D000C945D000C945D000C945D00DC
:100030000C945D000C945D000C945D000C945D00CC
:100040000C945D000C945D000C945D000C945D00BC
:100050000C945D000C945D000C945D000C945D00AC
:100060000C945D000C945D000C945D000C945D009C
:100070000C945D000C945D000C945D000C945D008C
:100080000C945D000C945D000C945D0011241FBE67
:10009000CFEFD0E4DEBFCDBF11E0A0E0B1E0E6E8F5
:1000A000F1E000E00BBF02C007900D92AE30B10747
:1000B000D9F70E948F000C94C1000C940000CF93DC
:1000C000C82F8A3019F48DE00E945F009091C00023
:1000D00095FFFCCFC093C60080E090E0CF910895DB
:1000E000442349F021E030E002C0220F331F6A951B
:1000F000E2F7822B089521E030E002C0220F331F87
:100100006A95E2F7209582230895992787FD9095B7
:1001100002C0959587956A95E2F78170089511B8A8
:1001200014B88FEF87B982B918B880B180958F70F5
:1001300093EF980F933018F48FE388B9F6CF96EFCA
:10014000980F933018F48EE388B9EFCF99EF980F9A
:10015000933018F48CE388B9E8CF9BEF980F923076
:1001600018F488E388B9E1CF9DEF980F923018F426
:1001700080E788B9DACF81508230B8F680E688B956
:06018000D4CFF894FFCF7C
:0E01860000000002000000005F00000000000A
:00000001FF
