:100000000C9446000C9465000C9465000C946500FB
:100010000C9465000C9465000C9465000C946500CC
:100020000C9465000C9465000C9465000C946500BC
:100030000C9465000C94A4000C9465000C9465006D
:100040000C9465000C9465000C9465000C9465009C
:100050000C9465000C9465000C9465000C9465008C
:100060000C9465000C9465000C9465000C9465007C
:100070000C9465000C9465000C9465000C9465006C
:100080000C9465000C9465000C94650011241FBE4F
:10009000CFEFD0E4DEBFCDBF11E0A0E0B1E0E2E100
:1000A000F9E000E00BBF02C007900D92A231B1074A
:1000B000D9F721E0A2E1B1E001C01D92A532B2075B
:1000C000E1F70E94BD030C9465040C940000CF93EB
:1000D000C82F8A3051F09091C00095FFFCCFC0939B
:1000E000C60090E080E0CF9108958DE00E94670007
:1000F000F2CF8BE0809381008FE090E090938900B5
:100100008093880082E080936F00109285001092A7
:1001100084008091000190910101A0910201B091B1
:1001200003018093120190931301A0931401B093E3
:1001300015018FB780688FBF0895109281000895D0
:1001400081E08093160108951F920F920FB60F92CF
:1001500011240BB60F922F933F934F935F936F939E
:100160007F938F939F93AF93BF93EF93FF93809170
:10017000120190911301A0911401B0911501019702
:10018000A109B1098093120190931301A093140166
:10019000B0931501892B8A2B8B2B99F0FF91EF914E
:1001A000BF91AF919F918F917F916F915F914F918F
:1001B0003F912F910F900BBE0F900FBE0F901F908D
:1001C00018950E94A0008091000190910101A091DA
:1001D0000201B09103018093120190931301A09347
:1001E0001401B0931501DACF6093000170930101FF
:1001F00080930201909303016093120170931301A5
:10020000809314019093150108950F931F93CF933A
:10021000DF9300D000D000D0CDB7DEB729833A837A
:100220004B835C8309811A812B812E833C813D8322
:1002300029813A814B815C810E943A0469837A83E7
:100240008B839C83602F712F8E819D8129813A81C0
:100250004B815C81232B242B252B21F726960FB66F
:10026000F894DEBF0FBECDBFDF91CF911F910F91EC
:100270000895442349F021E030E002C0220F331FEB
:100280006A95E2F7822B089521E030E002C0220F48
:10029000331F6A95E2F720958223089521E030E02C
:1002A00002C0220F331F6A95E2F78223089540E0CF
:1002B00064E08FEF0E94390182B9000080B160E0F4
:1002C00080950E944E0181117FC080B161E08095D0
:1002D0000E944E0181117AC080B162E080950E9437
:1002E0004E01811175C080B163E080950E944E017E
:1002F000811170C040E065E08FEF0E94390182B942
:10030000000080B160E080950E944E01811164C0C0
:1003100080B161E080950E944E0181115FC080B183
:1003200062E080950E944E0181115AC080B163E065
:1003300080950E944E01811155C040E066E08FEF2C
:100340000E94390182B9000080B160E080950E946E
:100350004E01811149C080B161E080950E944E013B
:10036000811144C080B162E080950E944E018111EC
:100370003FC080B163E080950E944E0181113AC078
:1003800040E067E08FEF0E94390182B9000080B140
:1003900060E080950E944E0181112EC080B161E025
:1003A00080950E944E01811129C080B162E0809544
:1003B0000E944E01811124C080B163E080950E94AB
:1003C0004E0181111FC0089581E3089584E30895CB
:1003D00087E308958AE2089582E3089585E3089506
:1003E00088E3089580E3089583E3089586E30895FC
:1003F00089E3089583E2089581E4089582E40895ED
:1004000083E4089584E4DFCF482F592F30E020E0C3
:1004100002C02F5F3F4F241735074CF490E080E077
:10042000873063E09607ACF700000196F9CF089596
:100430009BB19F7B9BB988B98BB180688BB9000059
:100440008BB18F778BB982E090E00E94040208950F
:1004500081E00E9418020895813120F481580E94A1
:100460001802089581550E941802089584E690E0CC
:100470000E94040288E30E94180286E00E9418028B
:100480008FE00E94180281E00E9418028AE090E04A
:100490000E94040208959BB190649BB988B98BB106
:1004A00080688BB900008BB18F778BB981E090E0C9
:1004B0000E94040208950F931F93CF93DF93182F88
:1004C000C62FD72F0E9428028881882351F001E08F
:1004D000010F812F0E942C0289910E944B02102F44
:1004E000F3CFDF91CF911F910F9108951F93CF9379
:1004F000DF93C82FD92F0E945701182F209749F05A
:10050000C130D10509F40EC1CE01DF91CF911F9109
:10051000089580912201882349F013521232F0F499
:10052000E12FF0E0E959FB4F0C945C048FE18093DC
:10053000230181E00E942C0280912301805D0E94B2
:100540004B02EBCF81E080932201809323010E9434
:100550002C0280912301805D0E944B028091230137
:1005600085B980932401C1E0D0E0CECF81E08093B3
:10057000220182E08093230181E00E942C0280917D
:100580002301805D0E944B02E9CF81E0809322012C
:1005900083E08093230181E00E942C02809123015B
:1005A000805D0E944B02DACF81E08093220184E0DB
:1005B0008093230181E00E942C0280912301805DC1
:1005C0000E944B02CBCF85E08093230181E00E9403
:1005D0002C0280912301805D0E944B02BFCF81E0FD
:1005E0008093220186E08093230181E00E942C0207
:1005F00080912301805D0E944B02B0CF81E0809307
:10060000220187E08093230181E00E942C028091E7
:100610002301805D0E944B02A1CF81E080932201E3
:1006200088E08093230181E00E942C0280912301C5
:10063000805D0E944B0292CF81E08093220189E08D
:100640008093230181E00E942C0280912301805D30
:100650000E944B0283CF82E0809322018AE0809344
:10066000230181E00E942C0280912301895C0E9479
:100670004B0274CF82E0809322018BE080932301B0
:1006800081E00E942C0280912301895C0E944B0230
:1006900065CF82E0809322018CE08093230181E08A
:1006A0000E942C0280912301895C0E944B0256CF4C
:1006B00082E0809322018DE08093230181E00E94FB
:1006C0002C0280912301895C0E944B0247CF83E07A
:1006D000809322018EE08093230181E00E942C020E
:1006E00080912301845E0E944B0238CF81E0809389
:1006F0002201109223010E942C0280912301805D2F
:100700000E944B022BCF84E0809322018FE08093E4
:10071000230181E00E942C02809123018C5E0E94C3
:100720004B021CCF81E00E942C0280912201833079
:10073000F1F050F4813081F0823099F480912401FD
:10074000895C0E944B020DC0843059F480912401D1
:100750008C5E0E944B0205C080912401805D0E9446
:100760004B02112309F4D0CED0E0C0E0CDCE809171
:100770002401845E0E944B02F4CF00D0CDB7DEB7D7
:100780008FEF84B915B890EF91B99FE092B987B90E
:1007900018B88AB91BB8E7E1F1E0FA83E98310825F
:1007A0008EE190E0A0E0B0E081839283A383B483E4
:1007B0008AE090E0A0E0B0E085839683A783B087CD
:1007C00086E792E0928781876AE070E080E090E0BF
:1007D0000E94F4000E9479000E94360240C0F70196
:1007E000EE0FFF1F81E090E08C0F9D1FE80FF91FB7
:1007F00000811181D80115964D915D916D917C918B
:10080000189711968D919D910D90BC91A02D481730
:1008100059076A077B0781F0F80185819681A781D6
:10082000B0850196A11DB11D85839683A783B087EE
:10083000FFEFEF1AFF0A15C0D8011996ED91FC9150
:100840001A978C91082E000C990B0995F80180835A
:100850001582168217821086DFCF10921601F12CB6
:10086000E12CE114F10409F4BACF80911601882338
:10087000E1F3F3CFA1E21A2EAA1BBB1BFD010DC0B1
:10088000AA1FBB1FEE1FFF1FA217B307E407F50740
:1008900020F0A21BB30BE40BF50B661F771F881F1C
:1008A000991F1A9469F760957095809590959B01B2
:1008B000AC01BD01CF010895EE0FFF1F0024001C05
:1008C0000BBE0790F691E02D0994F894FFCF8303B7
:1008D000AE02AE02AE02AE02AE02AE026703AE02DE
:1008E000AE02AE02AE02AE027603A202B602C502AC
:1008F000D402E302EF02FE020D031C03AE02AE02BD
:10090000AE02AE02AE02AE02AE022B033A034903C0
:0209100058038A
:10091200010000000000000200000000670000006B
:020922000000D3
:00000001FF
