:100000000C944E000C946D000C946D000C946D00DB
:100010000C946D000C946D000C946D000C946D00AC
:100020000C946D000C946D000C946D000C946D009C
:100030000C946D000C9418010C946D000C946D00E0
:100040000C946D000C946D000C946D000C946D007C
:100050000C946D000C946D000C946D000C946D006C
:100060000C946D000C946D000C946D000C946D005C
:100070000C946D000C946D000C946D000C946D004C
:100080000C946D000C946D000C946D0084018B0138
:10009000AF01B601BD01C401D401E40111241FBEAA
:1000A000CFEFD0E4DEBFCDBF11E0A0E0B1E0E6E9E4
:1000B000F4E000E00BBF02C007900D92A231B1073F
:1000C000D9F711E0A2E1B1E001C01D92AA31B10758
:1000D000E1F70E9414020C9449020C94000040E0E5
:1000E00050E00CC000002F5F3F4F02C020E030E026
:1000F000273063E03607B4F34F5F5F4F4817590767
:10010000ACF308955E9888B95F9A00005F9882E02A
:1001100090E00E946F00089581E00E94820008959F
:10012000813120F481580E948200089581550E94F7
:100130008200089584E690E00E946F0088E30E94A8
:10014000820086E00E9482008FE00E94820081E0AF
:100150000E9482008AE090E00E946F0008955E9AFB
:1001600088B95F9A00005F9881E090E00E946F007C
:100170000895EF92FF920F931F93CF93DF93182F61
:10018000EB010E948C000EC001E0010F812F0E9444
:1001900090007E018FEFE81AF80A88810E94AF0074
:1001A000102FE70188818111EFCFDF91CF911F914F
:1001B0000F91FF90EF900895CF93C82F8A3019F4D4
:1001C0008DE00E94DC009091C00095FFFCCFC093B1
:1001D000C60080E090E0CF9108958BE0809381008D
:1001E0008DE790E0909389008093880082E080936F
:1001F0006F00109285001092840080910001909110
:100200000101A0910201B091030180931301909329
:100210001401A0931501B09316018FB780688FBFAA
:10022000089510928100089581E080931701089548
:100230001F920F920FB60F9211240BB60F922F93AD
:100240003F934F935F936F937F938F939F93AF935E
:10025000BF93EF93FF938091130190911401A091AC
:100260001501B09116010197A109B10980931301FD
:1002700090931401A0931501B0931601892B8A2B3A
:100280008B2B91F40E941401809100019091010147
:10029000A0910201B0910301809313019093140186
:1002A000A0931501B0931601FF91EF91BF91AF910B
:1002B0009F918F917F916F915F914F913F912F917E
:1002C0000F900BBE0F900FBE0F901F90189560936C
:1002D00000017093010180930201909303016093E8
:1002E00013017093140180931501909316010895E2
:1002F000E0911801F0911901E830F10508F075C09E
:10030000EA5BFF4F0C94400281E090E0909319016A
:10031000809318016AC0019909C0009907C087E05D
:1003200090E090931901809318015FC0009907C075
:1003300082E090E0909319018093180156C00199D2
:1003400007C084E090E090931901809318014DC09C
:1003500081E090E0909319018093180146C081E0FC
:1003600090E090931901809318013FC081E090E0E4
:10037000909319018093180138C081E090E0909328
:1003800019018093180131C0009B07C082E090E002
:10039000909319018093180128C085E090E0909314
:1003A00019018093180121C0019B07C084E090E0EF
:1003B000909319018093180118C086E090E0909303
:1003C00019018093180111C0019B02C0009B07C056
:1003D00083E090E0909319018093180106C087E0B4
:1003E00090E09093190180931801809118019091E9
:1003F00019018330910569F08430910569F0029705
:1004000091F480911201893070F48F5F8093120112
:10041000089510921201089580911201882319F015
:10042000815080931201089511B88FEF82B987B976
:1004300018B88AB91BB864E670E080E090E00E94CA
:1004400067010E94ED0010921901109218010E949C
:100450009A0081E00E9490000E948C000E94780126
:100460008091120188B98091120190E0C0960E949B
:10047000AF00809117018823E1F310921701ECCFB0
:10048000EE0FFF1F0024001C0BBE0790F691E02D1D
:060490000994F894FFCF6F
:10049600010000000000000200000000DC00000077
:0204A600000054
:00000001FF
