:100000000C9446000C9465000C9465000C946500FB
:100010000C9465000C9465000C9465000C946500CC
:100020000C9465000C9465000C9465000C946500BC
:100030000C9465000C94A3000C9465000C9465006E
:100040000C9465000C9465000C9465000C9465009C
:100050000C9465000C9465000C9465000C9465008C
:100060000C9465000C9465000C9465000C9465007C
:100070000C9465000C9465000C9465000C9465006C
:100080000C9465000C9465000C94650011241FBE4F
:10009000CFEFD0E4DEBFCDBF11E0A0E0B1E0E6E6F7
:1000A000F6E000E00BBF02C007900D92A635B10745
:1000B000D9F711E0A6E5B1E001C01D92A836B1075D
:1000C000E1F70E949C020C9431030C940000CF9342
:1000D000C82F8A3019F48DE00E9467009091C0000B
:1000E00095FFFCCFC093C60080E090E0CF910895CB
:1000F0008BE0809381008FE090E090938900809363
:10010000880082E080936F00109285001092840036
:100110008091010190910201A0910301B09104012D
:100120008093570190935801A0935901B0935A01BD
:100130008FB780688FBF089510928100089581E085
:1001400080935B0108951F920F920FB60F921124B6
:100150000BB60F922F933F934F935F936F937F93C1
:100160008F939F93AF93BF93EF93FF93809157012A
:1001700090915801A0915901B0915A010197A1099C
:10018000B1098093570190935801A0935901B093FE
:100190005A01892B8A2B8B2B91F40E949F0080910E
:1001A000010190910201A0910301B091040180939B
:1001B000570190935801A0935901B0935A01FF91B0
:1001C000EF91BF91AF919F918F917F916F915F91CF
:1001D0004F913F912F910F900BBE0F900FBE0F903C
:1001E0001F901895609301017093020180930301A1
:1001F00090930401609357017093580180935901C3
:1002000090935A0108950F931F93CF93DF93B62FC6
:10021000A72FF82FE92F022F132FD42FC52F04C09B
:10022000062F172FD82FC92F6B2F7A2F8F2F9E2F86
:10023000202F312F4D2F5C2F0E940F03B02FA12FA5
:10024000FD2FEC2F611571058105910549F7602F90
:10025000712F8D2F9C2FDF91CF911F910F910895BA
:10026000442349F021E030E002C0220F331F6A9599
:10027000E2F7822B089521E030E002C0220F331F05
:100280006A95E2F720958223089521E030E002C0CC
:10029000220F331F6A95E2F78223089540E064E05D
:1002A0008FEF0E94300182B9000080B160E080953C
:1002B0000E944501811180C080B161E080950E945B
:1002C000450181117BC080B162E080950E944501AB
:1002D000811176C080B163E080950E944501811153
:1002E00071C040E065E08FEF0E94300182B90000EC
:1002F00080B160E080950E944501811165C080B1A8
:1003000061E080950E944501811160C080B162E08A
:1003100080950E94450181115BC080B163E08095AA
:100320000E944501811156C040E066E08FEF0E94B7
:10033000300182B9000080B160E080950E944501E3
:1003400081114AC080B161E080950E944501811110
:1003500045C080B162E080950E944501811140C096
:1003600080B163E080950E94450181113BC040E06F
:1003700067E08FEF0E94300182B9000080B160E039
:1003800080950E94450181112FC080B161E0809568
:100390000E94450181112AC080B162E080950E94CF
:1003A0004501811125C080B163E080950E9445011F
:1003B0008823F9F084E4089581E3089584E308959F
:1003C00087E308958AE2089582E3089585E3089516
:1003D00088E3089580E3089583E3089586E308950C
:1003E00089E3089583E2089581E4089582E40895FD
:1003F00083E4089540E050E00CC000002F5F3F4FC1
:1004000002C020E030E0273063E03607B4F34F5FEE
:100410005F4F48175907ACF308955E9888B95F9A03
:1004200000005F9882E090E00E94FA01089581E068
:100430000E940D020895813120F481580E940D021E
:10044000089581550E940D02089584E690E00E946F
:10045000FA0188E30E940D0286E00E940D028FE0FF
:100460000E940D0281E00E940D028AE090E00E944D
:10047000FA0108955E9A88B95F9A00005F9881E05A
:1004800090E00E94FA010895EF92FF920F931F935C
:10049000CF93DF93182FEB010E9417020EC001E0EB
:1004A000010F812F0E941B027E018FEFE81AF80ACC
:1004B00088810E943A02102FE70188818111EFCFD5
:1004C000DF91CF911F910F91FF90EF900895CF93FF
:1004D000DF93EC01009761F581E0809367011FC015
:1004E0000E941B0280910001E0916701F0E0E80F9B
:1004F000F11DEF5EFE4F80810E943A0290916701EC
:1005000080910001292F30E0280F311D2134310561
:1005100019F481E0809300019F5F909367018091BF
:1005200067018131E8F2809100018F5F80930001C3
:10053000CE01DF91CF910895CF93DF9300D0CDB757
:10054000DEB78FEF84B915B890EF91B99FE092B9FB
:1005500087B918B88AB91BB8ECE5F1E0FA83E983EA
:10056000108282E090E0A0E0B0E081839283A383D8
:10057000B48385839683A783B08787E692E09287CA
:1005800081876AE070E080E090E00E94F2000E94C3
:1005900078000E94250200E010E037C0F801EE0F5D
:1005A000FF1FEC0FFD1FE180F280D70115964D91E2
:1005B0005D916D917C91189711968D919D910D9003
:1005C000BC91A02D481759076A077B0781F4D70112
:1005D0001996ED91FC911A978C91992787FD90952A
:1005E0000995F70180831582168217821086F7011C
:1005F00085819681A781B0850196A11DB11D858356
:100600009683A783B0870F5F1F4F0115110531F245
:1006100080915B018823E1F310925B01BCCFA1E2E2
:100620001A2EAA1BBB1BFD010DC0AA1FBB1FEE1F6C
:10063000FF1FA217B307E407F50720F0A21BB30BB7
:10064000E40BF50B661F771F881F991F1A9469F733
:1006500060957095809590959B01AC01BD01CF018F
:060660000895F894FFCF9D
:100666000101000000000000020000000067000019
:1006760000000020202020202020202020202020D4
:1006860020435331323042206973204C6567656ED2
:10069600642E2E2E7761697420666F72206974202D
:1006A6004441525921202020202020202020202093
:0606B6002020202020009E
:00000001FF
