:100000000C9446000C9465000C9465000C946500FB
:100010000C9465000C9465000C9465000C946500CC
:100020000C9465000C9465000C9465000C946500BC
:100030000C9465000C94A3000C9465000C9465006E
:100040000C9465000C9465000C9465000C9465009C
:100050000C9465000C9465000C9465000C9465008C
:100060000C9465000C9465000C9465000C9465007C
:100070000C9465000C9465000C9465000C9465006C
:100080000C9465000C9465000C94650011241FBE4F
:10009000CFEFD0E4DEBFCDBF11E0A0E0B1E0EEEBEA
:1000A000F2E000E00BBF02C007900D92A231B10751
:1000B000D9F711E0A2E1B1E001C01D92AA31B10768
:1000C000E1F70E9442010C945D010C940000CF9373
:1000D000C82F8A3019F48DE00E9467009091C0000B
:1000E00095FFFCCFC093C60080E090E0CF910895CB
:1000F0008BE0809381008DE790E09093890080935E
:10010000880082E080936F00109285001092840036
:100110008091000190910101A0910201B091030131
:100120008093130190931401A0931501B0931601CD
:100130008FB780688FBF089510928100089581E085
:100140008093170108951F920F920FB60F921124FA
:100150000BB60F922F933F934F935F936F937F93C1
:100160008F939F93AF93BF93EF93FF93809113016E
:1001700090911401A0911501B09116010197A10968
:10018000B1098093130190931401A0931501B093CA
:100190001601892B8A2B8B2B91F40E949F00809152
:1001A000000190910101A0910201B091030180939F
:1001B000130190931401A0931501B0931601FF91C0
:1001C000EF91BF91AF919F918F917F916F915F91CF
:1001D0004F913F912F910F900BBE0F900FBE0F903C
:1001E0001F901895609300017093010180930201A4
:1001F0009093030160931301709314018093150190
:100200009093160108958091180190911901813001
:10021000910571F030F08230910589F00397B1F0CB
:1002200019C081E090E0909319018093180112C0E9
:1002300082E090E090931901809318010BC083E055
:1002400090E0909319018093180104C01092190155
:100250001092180180911801909119018230910536
:1002600049F08330910551F0019759F481E0809372
:100270001201089582E080931201089584E0809332
:10028000120108958FEF84B915B868EE73E080E02D
:1002900090E00E94F2000E947800109219011092E2
:1002A00018010E940301809117018823E1F3109245
:0E02B00017018091120185B9F4CFF894FFCFA9
:1002BE0001000000000000020000000067000000C6
:0202CE0000002E
:00000001FF
