:100000000C944E000C946D000C946D000C946D00DB
:100010000C946D000C946D000C946D000C946D00AC
:100020000C946D000C946D000C946D000C946D009C
:100030000C946D000C946D000C946D000C946D008C
:100040000C946D000C946D000C946D000C946D007C
:100050000C946D000C946D000C946D000C946D006C
:100060000C946D000C946D000C946D000C946D005C
:100070000C946D000C946D000C946D000C946D004C
:100080000C946D000C946D000C946D008C0093002A
:10009000B700BE00C500CC00DC00EC0011241FBE80
:1000A000CFEFD0E4DEBFCDBF11E0A0E0B1E0E2E7EA
:1000B000F2E000E00BBF02C007900D92AE30B10736
:1000C000D9F711E0AEE0B1E001C01D92A131B10756
:1000D000E1F70E941C010C9437010C940000CF93AF
:1000E000C82F8A3019F48DE00E946F009091C000F3
:1000F00095FFFCCFC093C60080E090E0CF910895BB
:10010000E0910F01F0911001E830F10508F075C0A1
:10011000EA5BFF4F0C942E0181E090E09093100178
:1001200080930F016AC0019909C0009907C087E058
:1001300090E09093100180930F015FC0009907C079
:1001400085E090E09093100180930F0156C00199D3
:1001500007C086E090E09093100180930F014DC09E
:1001600081E090E09093100180930F0146C081E000
:1001700090E09093100180930F013FC081E090E0E8
:100180009093100180930F0138C081E090E090932C
:10019000100180930F0131C0009B07C082E090E006
:1001A0009093100180930F0128C085E090E0909318
:1001B000100180930F0121C0019B07C084E090E0F3
:1001C0009093100180930F0118C086E090E0909307
:1001D000100180930F0111C0019B02C0009B07C05A
:1001E00083E090E09093100180930F0106C087E0B8
:1001F00090E09093100180930F0180910F019091F6
:1002000010018330910569F08430910569F00297FF
:1002100091F480910E01893070F48F5F80930E010C
:10022000089510920E01089580910E01882319F00F
:10023000815080930E01089511B88FEF87B982B96C
:1002400018B81092100110920F0187E080930E01F0
:100250000E94800080910E0188B9FACFEE0FFF1F37
:100260000024001C0BBE0790F691E02D0994F89431
:02027000FFCFBE
:0E02720000000002000000006F00000000000D
:00000001FF
