:100000000C9446000C9465000C9465000C946500FB
:100010000C9465000C9465000C9465000C946500CC
:100020000C9465000C9465000C9465000C946500BC
:100030000C9465000C94A3000C9465000C9465006E
:100040000C9465000C9465000C9465000C9465009C
:100050000C9465000C9465000C9465000C9465008C
:100060000C9465000C9465000C9465000C9465007C
:100070000C9465000C9465000C9465000C9465006C
:100080000C9465000C9465000C94650011241FBE4F
:10009000CFEFD0E4DEBFCDBF11E0A0E0B1E0ECE8EF
:1000A000F9E000E00BBF02C007900D92A233B10748
:1000B000D9F711E0A2E3B1E001C01D92A734B10766
:1000C000E1F70E94E2020C94C4040C940000CF9368
:1000D000C82F8A3019F48DE00E9467009091C0000B
:1000E00095FFFCCFC093C60080E090E0CF910895CB
:1000F0008BE0809381008FE090E090938900809363
:10010000880082E080936F00109285001092840036
:1001100080910E0190910F01A0911001B0911101F9
:100120008093340190933501A0933601B093370149
:100130008FB780688FBF089510928100089581E085
:100140008093380108951F920F920FB60F921124D9
:100150000BB60F922F933F934F935F936F937F93C1
:100160008F939F93AF93BF93EF93FF93809134014D
:1001700090913501A0913601B09137010197A10905
:10018000B1098093340190933501A0933601B09367
:100190003701892B8A2B8B2B91F40E949F00809131
:1001A0000E0190910F01A0911001B0911101809367
:1001B000340190933501A0933601B0933701FF913C
:1001C000EF91BF91AF919F918F917F916F915F91CF
:1001D0004F913F912F910F900BBE0F900FBE0F903C
:1001E0001F90189560930E0170930F01809310017A
:1001F000909311016093340170933501809336011F
:10020000909337010895CF92DF92EF92FF926B01A6
:100210007C012091390130913A0140913B0150918C
:100220003C010E944B03882309F458C020E030E0D1
:10023000A901C701B6010E944B03811106C0E1E983
:10024000F0E080818870808305C0E1E9F0E0808182
:100250008360808328E539E344E75FE3C701B601A3
:100260000E944B0388233CF48FEF9FEF90939900FB
:100270008093980027C020E034E244EF56E4C701A1
:10028000B6010E945D0418162CF410929900109289
:10029000980018C020E030E040E053E4C701B60108
:1002A0000E9461049B01AC0160E074E284EF9AE477
:1002B0000E944F030E94B703615071097093990027
:1002C000609398001092950010929400C0923901AA
:1002D000D0923A01E0923B01F0923C01FF90EF9006
:1002E000DF90CF90089580E4809390008BE080931E
:1002F000910060E070E0CB010E940301089510922C
:1003000090001092910008958091400190914101D8
:100310008130910571F030F08230910589F00397BA
:10032000B1F01BC081E090E09093410180934001C7
:1003300014C082E090E090934101809340010DC091
:1003400083E090E0909341018093400106C081E0FA
:1003500090E0909341018093400180914001909101
:1003600041018230910549F08330910551F00197A8
:1003700059F481E080933301089582E08093330142
:10038000089584E080933301089580914501909110
:1003900046018130910559F018F0029779F014C0A8
:1003A00082E090E090934601809345010DC082E089
:1003B00090E0909346018093450106C081E090E073
:1003C00090934601809345018091450190914601AB
:1003D0008130910539F018F0029741F0089510929C
:1003E0003201089588E0809332010895109232011D
:1003F000089580914301909144018130910559F015
:1004000018F00297D1F031C081E090E09093440160
:10041000809343012AC010923D01029907C082E0F7
:1004200090E090934401809343011FC081E090E0ED
:10043000909344018093430118C002990BC08091AE
:100440003D01823038F482E090E090934401809343
:1004500043010BC080913D018F5F80933D0181E09E
:1004600090E09093440180934301809143019091E7
:1004700044018130910519F0029769F0089560E018
:1004800070E0CB010E940301909132018091330111
:10049000892B85B90895E0914201F0E0EE0FFF1F2E
:1004A000EE0FFF1FEE5EFE4F6081718182819381AE
:1004B0000E9403019091320180913301892B85B90B
:1004C000089580913E0190913F018230910571F134
:1004D00028F4009759F0019781F055C084309105B8
:1004E000E1F158F1059709F43FC04DC081E090E07B
:1004F00090933F0180933E0146C0009907C083E07E
:1005000090E090933F0180933E013DC0019907C068
:1005100085E090E090933F0180933E0134C081E0FC
:1005200090E090933F0180933E012DC081E090E0E8
:1005300090933F0180933E0126C0009907C083E05D
:1005400090E090933F0180933E011DC082E090E0D7
:1005500090933F0180933E0116C081E090E090931C
:100560003F0180933E010FC0019907C085E090E0F4
:1005700090933F0180933E0106C084E090E0909309
:100580003F0180933E0180913E0190913F01823076
:10059000910541F08430910569F0892B91F4109216
:1005A0004201089580914201873058F48F5F809313
:1005B0004201089580914201882319F0815080936F
:1005C000420108958FEF84B915B861E070E080E0D2
:1005D00090E00E94F2000E9478000E947301109245
:1005E0004101109240011092460110924501109273
:1005F000440110924301C12CD12C76016894C1F8BA
:100600000F2EF8EE4F2EF3E05F2E612C712CF02DA3
:100610000F2EFCE28F2E99249394A12CB12CF02D57
:100620008CE2881681E09806A104B10428F00E94AB
:100630008401812C912C540188EE481683E05806E1
:100640006104710428F00E94C501412C512C320133
:1006500082E0C816D104E104F10428F00E94F901F7
:10066000C12CD12C76010E9461028091380188232F
:10067000E1F3109238018FEF881A980AA80AB80A95
:100680008FEF481A580A680A780A8FEFC81AD80AF2
:10069000E80AF80AC5CF9CD008F481E008950CD090
:1006A000D2C0CAD040F0C1D030F021F45F3F19F081
:1006B000B3C05111FCC0B6C0D7D098F39923C9F389
:1006C0005523B1F3951B550BBB27AA276217730758
:1006D000840738F09F5F5F4F220F331F441FAA1F0C
:1006E000A9F333D00E2E3AF0E0E830D091505040CC
:1006F000E695001CCAF729D0FE2F27D0660F771F7A
:10070000881FBB1F261737074807AB07B0E809F05B
:10071000BB0B802DBF01FF2793585F4F2AF09E3FF0
:10072000510568F079C0C3C05F3FECF3983EDCF33D
:10073000869577956795B795F7959F5FC9F7880F69
:10074000911D9695879597F90895E1E0660F771FBB
:10075000881FBB1F621773078407BA0720F0621B4C
:10076000730B840BBA0BEE1F88F7E095089504D045
:100770006894B1119CC008957FD088F09F5790F085
:10078000B92F9927B751A0F0D1F0660F771F881FB6
:10079000991F1AF0BA95C9F712C0B13081F086D00E
:1007A000B1E0089583C0672F782F8827B85F39F0AC
:1007B000B93FCCF3869577956795B395D9F73EF415
:1007C00090958095709561957F4F8F4F9F4F0895BD
:1007D000990F0008550FAA0BE0E8FEEF1616170652
:1007E000E807F907C0F012161306E407F50798F0BA
:1007F000621B730B840B950B39F40A2661F0232BD3
:10080000242B252B21F408950A2609F4A140A6954E
:100810008FEF811D811D089597F99F6780E870E033
:1008200060E008959FEF80EC089500240A94161666
:10083000170618060906089500240A9412161306CE
:10084000140605060895092E0394000C11F488235C
:1008500052F0BB0F40F4BF2B11F460FF04C06F5F78
:100860007F4F8F4F9F4F089557FD9058440F551F4E
:1008700059F05F3F71F04795880F97FB991F61F022
:100880009F3F79F087950895121613061406551F99
:10089000F2CF4695F1DF08C0161617061806991F05
:1008A000F1CF86957105610508940895E894BB27FA
:1008B00066277727CB0197F908958ADF08F48FEF31
:1008C00008950BD0C0CFB1DF28F0B6DF18F0952324
:1008D00009F0A2CFA7CF1124EACFC6DFA0F3959FDE
:1008E000D1F3950F50E0551F629FF001729FBB2717
:1008F000F00DB11D639FAA27F00DB11DAA1F649FC3
:100900006627B00DA11D661F829F2227B00DA11D75
:10091000621F739FB00DA11D621F839FA00D611DFB
:10092000221F749F3327A00D611D231F849F600D1C
:10093000211D822F762F6A2F11249F5750408AF055
:10094000E1F088234AF0EE0FFF1FBB1F661F771FE1
:10095000881F91505040A9F79E3F510570F05CCF21
:10096000A6CF5F3FECF3983EDCF3869577956795CD
:10097000B795F795E7959F5FC1F7FE2B880F911DFF
:0C0980009695879597F90895F894FFCF9D
:10098C0000000002000000006700000000000100F1
:10099C000000A4D082437BD49243A4D0A443719D85
:1009AC00AE430000C4430000DC43A4F0F64300D087
:0209BC000244F3
:00000001FF
