:100000000C944F000C946E000C946E000C946E00D7
:100010000C946E000C946E000C946E000C946E00A8
:100020000C946E000C946E000C946E000C946E0098
:100030000C946E000C946E000C946E000C946E0088
:100040000C946E000C946E000C946E000C946E0078
:100050000C946E000C946E000C946E000C946E0068
:100060000C946E000C946E000C946E000C946E0058
:100070000C946E000C946E000C946E000C946E0048
:100080000C946E000C946E000C946E000E01220114
:1000900029013F0153017D0184019A01A10111242D
:1000A0001FBECFEFD0E4DEBFCDBF11E0A0E0B1E0D6
:1000B000E6E0F7E000E00BBF02C007900D92AE3221
:1000C000B107D9F711E0AEE2B1E001C01D92A5334E
:1000D000B107E1F70E94F1010C9481030C94000038
:1000E000CF93C82F8A3019F48DE00E947000909150
:1000F000C00095FFFCCFC093C60080E090E0CF9198
:100100000895CF92DF92EF92FF926B017C012091D4
:100110002E0130912F0140913001509131010E9408
:100120000802882309F458C020E030E0A901C70183
:10013000B6010E940802811106C0E1E9F0E0808169
:100140008870808305C0E1E9F0E08081836080836E
:1001500028E539E344E75FE3C701B6010E940802DE
:1001600088233CF48FEF9FEF909399008093980041
:1001700027C020E034E244EF56E4C701B6010E94F4
:100180001A0318162CF4109299001092980018C0B7
:1001900020E030E040E053E4C701B6010E941E03B6
:1001A0009B01AC0160E074E284EF9AE40E940C02CF
:1001B0000E947402615071097093990060939800D5
:1001C0001092950010929400C0922E01D0922F01AF
:1001D000E0923001F0923101FF90EF90DF90CF90EC
:1001E000089580E4809390008BE08093910060E01C
:1001F00070E0CB010E94810008951092900010924F
:1002000091000895E0913201F0913301E930F10558
:1002100008F0ACC0EA5BFF4F0C94FF0180B190E0A6
:100220008095909587709927019739F482E090E046
:10023000909333018093320199C010923301109250
:10024000320194C084E090E09093330180933201B6
:100250008DC080B190E08095909587709927019727
:1002600039F482E090E090933301809332017EC0B4
:1002700081E090E0909333018093320177C080B1A8
:1002800090E08095909587709927019739F483E0E5
:1002900090E0909333018093320168C01092330153
:1002A0001092320163C080B190E080959095877084
:1002B00099278230910561F08430910581F0019792
:1002C000A9F483E090E090933301809332014EC013
:1002D00086E090E0909333018093320147C088E03C
:1002E00090E0909333018093320140C084E090E02D
:1002F000909333018093320139C084E090E0909371
:1003000033018093320132C080B190E080959095A6
:1003100087709927029739F486E090E09093330133
:100320008093320123C085E090E090933301809365
:1003300032011CC084E090E090933301809332013D
:1003400015C080B190E080959095877099270497AB
:1003500039F488E090E0909333018093320106C035
:1003600087E090E0909333018093320180913201D5
:100370009091330184309105A1F028F4009749F061
:10038000029751F0089585309105D9F0079709F14A
:1003900008950E94FD0008950E94F100109234011A
:1003A0000895E0913401F0E0EE0FFF1FEE0FFF1F04
:1003B000E050FF4F60817181828193810E948100B2
:1003C000089580913401873058F48F5F8093340111
:1003D000089580913401882319F08150809334016D
:1003E000089511B88FEF82B984B915B80E94F10051
:1003F00010923301109232010E940201FDCFEE0FE4
:10040000FF1F0024001C0BBE0790F691E02D0994FD
:100410009CD008F481E008950CD0D2C0CAD040F03E
:10042000C1D030F021F45F3F19F0B3C05111FCC0CE
:10043000B6C0D7D098F39923C9F35523B1F3951BD0
:10044000550BBB27AA2762177307840738F09F5FF5
:100450005F4F220F331F441FAA1FA9F333D00E2E64
:100460003AF0E0E830D091505040E695001CCAF7D1
:1004700029D0FE2F27D0660F771F881FBB1F261796
:1004800037074807AB07B0E809F0BB0B802DBF0169
:10049000FF2793585F4F2AF09E3F510568F079C0BF
:1004A000C3C05F3FECF3983EDCF386957795679584
:1004B000B795F7959F5FC9F7880F911D969587951A
:1004C00097F90895E1E0660F771F881FBB1F621739
:1004D00073078407BA0720F0621B730B840BBA0BF7
:1004E000EE1F88F7E095089504D06894B1119CC080
:1004F00008957FD088F09F5790F0B92F9927B75172
:10050000A0F0D1F0660F771F881F991F1AF0BA95D7
:10051000C9F712C0B13081F086D0B1E0089583C030
:10052000672F782F8827B85F39F0B93FCCF38695CD
:1005300077956795B395D9F73EF49095809570952A
:1005400061957F4F8F4F9F4F0895990F0008550F6A
:10055000AA0BE0E8FEEF16161706E807F907C0F049
:1005600012161306E407F50798F0621B730B840B51
:10057000950B39F40A2661F0232B242B252B21F42B
:1005800008950A2609F4A140A6958FEF811D811DCB
:10059000089597F99F6780E870E060E008959FEF05
:1005A00080EC089500240A9416161706180609060A
:1005B000089500240A9412161306140605060895D9
:1005C000092E0394000C11F4882352F0BB0F40F461
:1005D000BF2B11F460FF04C06F5F7F4F8F4F9F4FA1
:1005E000089557FD9058440F551F59F05F3F71F023
:1005F0004795880F97FB991F61F09F3F79F087958A
:100600000895121613061406551FF2CF4695F1DF12
:1006100008C0161617061806991FF1CF86957105A2
:10062000610508940895E894BB2766277727CB01D6
:1006300097F908958ADF08F48FEF08950BD0C0CFA3
:10064000B1DF28F0B6DF18F0952309F0A2CFA7CFCD
:100650001124EACFC6DFA0F3959FD1F3950F50E0A8
:10066000551F629FF001729FBB27F00DB11D639F64
:10067000AA27F00DB11DAA1F649F6627B00DA11D0A
:10068000661F829F2227B00DA11D621F739FB00DB0
:10069000A11D621F839FA00D611D221F749F332720
:1006A000A00D611D231F849F600D211D822F762FB9
:1006B0006A2F11249F5750408AF0E1F088234AF0B6
:1006C000EE0FFF1FBB1F661F771F881F9150504002
:1006D000A9F79E3F510570F05CCFA6CF5F3FECF3CA
:1006E000983EDCF3869577956795B795F795E795EE
:1006F0009F5FC1F7FE2B880F911D9695879597F9FF
:060700000895F894FFCFFC
:10070600A4D082437BD49243A4D0A443719DAE432C
:100716000000C4430000DC43A4F0F64300D00244CA
:0E072600000000020000000070000000000053
:00000001FF
