:100000000C9446000C9465000C9465000C946500FB
:100010000C9465000C9465000C9465000C946500CC
:100020000C9465000C9465000C9465000C946500BC
:100030000C9465000C94A4000C9465000C9465006D
:100040000C9465000C9465000C9465000C9465009C
:100050000C9465000C9465000C9465000C9465008C
:100060000C9465000C9465000C9465000C9465007C
:100070000C9465000C9465000C9465000C9465006C
:100080000C9465000C9465000C94650011241FBE4F
:10009000CFEFD0E4DEBFCDBF11E0A0E0B1E0E6E7F6
:1000A000F5E000E00BBF02C007900D92AC32B10743
:1000B000D9F721E0ACE2B1E001C01D92A133B20753
:1000C000E1F70E9476020C94B9020C940000CF93E1
:1000D000C82F8A3051F09091C00095FFFCCFC0939B
:1000E000C60090E080E0CF9108958DE00E94670007
:1000F000F2CF8BE0809381008FE090E090938900B5
:100100008093880082E080936F00109285001092A7
:1001100084008091000190910101A0910201B091B1
:10012000030180932C0190932D01A0932E01B09395
:100130002F018FB780688FBF0895109281000895B6
:1001400081E08093300108951F920F920FB60F92B5
:1001500011240BB60F922F933F934F935F936F939E
:100160007F938F939F93AF93BF93EF93FF93809170
:100170002C0190912D01A0912E01B0912F0101979A
:10018000A109B10980932C0190932D01A0932E0118
:10019000B0932F01892B8A2B8B2B99F0FF91EF9134
:1001A000BF91AF919F918F917F916F915F914F918F
:1001B0003F912F910F900BBE0F900FBE0F901F908D
:1001C00018950E94A0008091000190910101A091DA
:1001D0000201B091030180932C0190932D01A09313
:1001E0002E01B0932F01DACF6093000170930101CB
:1001F000809302019093030160932C0170932D0171
:1002000080932E0190932F0108950F931F93CF9306
:10021000DF9300D000D000D0CDB7DEB729833A837A
:100220004B835C8309811A812B812E833C813D8322
:1002300029813A814B815C810E94970269837A838C
:100240008B839C83602F712F8E819D8129813A81C0
:100250004B815C81232B242B252B21F726960FB66F
:10026000F894DEBF0FBECDBFDF91CF911F910F91EC
:100270000895442349F021E030E002C0220F331FEB
:100280006A95E2F7822B089521E030E002C0220F48
:10029000331F6A95E2F720958223089521E030E02C
:1002A00002C0220F331F6A95E2F78223089540E0CF
:1002B00064E08FEF0E94390182B9000080B160E0F4
:1002C00080950E944E0181117FC080B161E08095D0
:1002D0000E944E0181117AC080B162E080950E9437
:1002E0004E01811175C080B163E080950E944E017E
:1002F000811170C040E065E08FEF0E94390182B942
:10030000000080B160E080950E944E01811164C0C0
:1003100080B161E080950E944E0181115FC080B183
:1003200062E080950E944E0181115AC080B163E065
:1003300080950E944E01811155C040E066E08FEF2C
:100340000E94390182B9000080B160E080950E946E
:100350004E01811149C080B161E080950E944E013B
:10036000811144C080B162E080950E944E018111EC
:100370003FC080B163E080950E944E0181113AC078
:1003800040E067E08FEF0E94390182B9000080B140
:1003900060E080950E944E0181112EC080B161E025
:1003A00080950E944E01811129C080B162E0809544
:1003B0000E944E01811124C080B163E080950E94AB
:1003C0004E0181111FC0089581E3089584E30895CB
:1003D00087E308958AE2089582E3089585E3089506
:1003E00088E3089580E3089583E3089586E30895FC
:1003F00089E3089583E2089581E4089582E40895ED
:1004000083E4089584E4DFCF482F592F30E020E0C3
:1004100002C02F5F3F4F241735074CF490E080E077
:10042000873063E09607ACF700000196F9CF089596
:100430009BB19F7B9BB988B98BB180688BB9000059
:100440008BB18F778BB982E090E00E94040208950F
:1004500081E00E9418020895813120F481580E94A1
:100460001802089581550E941802089584E690E0CC
:100470000E94040288E30E94180286E00E9418028B
:100480008FE00E94180281E00E9418028AE090E04A
:100490000E94040208959BB190649BB988B98BB106
:1004A00080688BB900008BB18F778BB981E090E0C9
:1004B0000E94040208950F931F93CF93DF93182F88
:1004C000C62FD72F0E9428028881882351F001E08F
:1004D000010F812F0E942C0289910E944B02102F44
:1004E000F3CFDF91CF911F910F9108958FEF84B9D2
:1004F00015B893E091B99CEF92B987B918B88AB949
:100500001BB80E94360209C064E271E081E00E94DB
:100510005B0288EE93E00E9404020E94570181333F
:1005200099F762E171E081E00E945B02F2CFA1E203
:100530001A2EAA1BBB1BFD010DC0AA1FBB1FEE1F5D
:10054000FF1FA217B307E407F50720F0A21BB30BA8
:10055000E40BF50B661F771F881F991F1A9469F724
:1005600060957095809590959B01AC01BD01CF0180
:060570000895F894FFCF8E
:10057600010000000000000200000000670000000B
:100586000000796F75207072657373656420312081
:0C05960062726F0077616974696E670023
:00000001FF
