:100000000C9446000C9465000C9465000C946500FB
:100010000C9465000C9465000C9465000C946500CC
:100020000C9465000C9465000C9465000C946500BC
:100030000C9465000C94AC000C9465000C94650065
:100040000C9465000C9465000C9465000C9465009C
:100050000C9465000C9465000C9465000C9465008C
:100060000C9465000C9465000C9465000C9465007C
:100070000C9465000C9465000C9465000C9465006C
:100080000C9465000C9465000C94650011241FBE4F
:10009000CFEFD0E4DEBFCDBF11E0A0E0B1E0E8EFEC
:1000A000F5E000E00BBF02C007900D92A034B1074D
:1000B000D9F721E0A0E4B1E001C01D92A534B20758
:1000C000E1F70E949E020C94FA020C940000CF9378
:1000D000C82F8A3051F09091C00095FFFCCFC0939B
:1000E000C60090E080E0CF9108958DE00E94670007
:1000F000F2CF009729F422B1211102C02FEF22B9CB
:1001000008958BE0809381008FE090E090938900C8
:100110008093880082E080936F0010928500109297
:1001200084008091200190912101A0912201B09141
:1001300023018093400190934101A0934201B09329
:1001400043018FB780688FBF089510928100089592
:1001500081E08093440108951F920F920FB60F9291
:1001600011240BB60F922F933F934F935F936F938E
:100170007F938F939F93AF93BF93EF93FF93809160
:10018000400190914101A0914201B091430101973A
:10019000A109B1098093400190934101A0934201CC
:1001A000B0934301892B8A2B8B2B99F0FF91EF9110
:1001B000BF91AF919F918F917F916F915F914F917F
:1001C0003F912F910F900BBE0F900FBE0F901F907D
:1001D00018950E94A8008091200190912101A09182
:1001E0002201B09123018093400190934101A0939B
:1001F0004201B0934301DACF609320017093210153
:1002000080932201909323016093400170934101F8
:10021000809342019093430108950F931F93CF93CE
:10022000DF9300D000D000D0CDB7DEB729833A836A
:100230004B835C8309811A812B812E833C813D8312
:1002400029813A814B815C810E94D80269837A833B
:100250008B839C83602F712F8E819D8129813A81B0
:100260004B815C81232B242B252B21F726960FB65F
:10027000F894DEBF0FBECDBFDF91CF911F910F91DC
:100280000895442349F021E030E002C0220F331FDB
:100290006A95E2F7822B089521E030E002C0220F38
:1002A000331F6A95E2F720958223089521E030E01C
:1002B00002C0220F331F6A95E2F78223089540E0BF
:1002C00064E08FEF0E94410182B9000080B160E0DC
:1002D00080950E94560181117FC080B161E08095B8
:1002E0000E94560181117AC080B162E080950E941F
:1002F0005601811175C080B163E080950E9456015E
:10030000811170C040E065E08FEF0E94410182B929
:10031000000080B160E080950E945601811164C0A8
:1003200080B161E080950E94560181115FC080B16B
:1003300062E080950E94560181115AC080B163E04D
:1003400080950E945601811155C040E066E08FEF14
:100350000E94410182B9000080B160E080950E9456
:100360005601811149C080B161E080950E9456011B
:10037000811144C080B162E080950E9456018111D4
:100380003FC080B163E080950E94560181113AC060
:1003900040E067E08FEF0E94410182B9000080B128
:1003A00060E080950E94560181112EC080B161E00D
:1003B00080950E945601811129C080B162E080952C
:1003C0000E945601811124C080B163E080950E9493
:1003D000560181111FC0089581E3089584E30895B3
:1003E00087E308958AE2089582E3089585E30895F6
:1003F00088E3089580E3089583E3089586E30895EC
:1004000089E3089583E2089581E4089582E40895DC
:1004100083E4089584E4DFCF482F592F30E020E0B3
:1004200002C02F5F3F4F241735074CF490E080E067
:10043000873063E09607ACF700000196F9CF089586
:100440009BB19F7B9BB988B98BB180688BB9000049
:100450008BB18F778BB982E090E00E940C020895F7
:1004600081E00E9420020895813120F481580E9489
:100470002002089581550E942002089584E690E0AC
:100480000E940C0288E30E94200286E00E94200263
:100490008FE00E94200281E00E9420028AE090E02A
:1004A0000E940C0208959BB190649BB988B98BB1EE
:1004B00080688BB900008BB18F778BB981E090E0B9
:1004C0000E940C0208950F931F93CF93062F172FAE
:1004D000883038F080E80E942002CF911F910F9160
:1004E0000895885F880F880F880F0E942002C0E05F
:1004F00007C0F801EC0FF11D80810E945302CF5F0D
:10050000C830B8F3E7CF0F931F93CF93DF93182F23
:10051000C62FD72F0E9430028881882351F001E036
:10052000010F812F0E94340289910E945302102FE3
:10053000F3CFDF91CF911F910F91089514B8CFEFB2
:10054000C5B9C1B912B8C7B918B8CAB91BB80E94A1
:100550003E0262E371E082E10E94830268E171E0A1
:1005600080E00E94630260E171E081E00E9463022A
:1005700060E071E083E00E94630287E00E94340241
:1005800080E00E94530281E00E94530282E00E94B8
:10059000530283E00E945302C2B96AE070E080E037
:1005A00090E00E94FC000E94810090E080E00895AD
:1005B000A1E21A2EAA1BBB1BFD010DC0AA1FBB1F67
:1005C000EE1FFF1FA217B307E407F50720F0A21BD9
:1005D000B30BE40BF50B661F771F881F991F1A9446
:1005E00069F760957095809590959B01AC01BD0170
:0805F000CF010895F894FFCF3C
:1005F80011090402050A1100040411001F00150462
:10060800110A040E000A000A1F1F151F001F1F1FD2
:100618000100000000000002000000006700000068
:1006280000004C65742773206765742069740000A6
:00000001FF
