:100000000C9446000C9465000C9465000C946500FB
:100010000C9465000C9465000C9465000C946500CC
:100020000C9465000C9465000C9465000C946500BC
:100030000C9465000C94A4000C9465000C9465006D
:100040000C9465000C9465000C9465000C9465009C
:100050000C9465000C9465000C9465000C9465008C
:100060000C9465000C9465000C9465000C9465007C
:100070000C9465000C9465000C9465000C9465006C
:100080000C9465000C9465000C94650011241FBE4F
:10009000CFEFD0E4DEBFCDBF11E0A0E0B1E0E4E7F8
:1000A000FFE000E00BBF02C007900D92A439B1073A
:1000B000D9F721E0A4E9B1E001C01D92A43CB20748
:1000C000E1F70E9491050C94A5070C940000CF93D2
:1000D000C82F8A3051F09091C00095FFFCCFC0939B
:1000E000C60090E080E0CF9108958DE00E94670007
:1000F000F2CF8BE0809381008FE090E090938900B5
:100100008093880082E080936F00109285001092A7
:10011000840080913B0190913C01A0913D01B09100
:100120003E018093960190939701A0939801B0931C
:1001300099018FB780688FBF08951092810008954C
:1001400081E080939A0108951F920F920FB60F924B
:1001500011240BB60F922F933F934F935F936F939E
:100160007F938F939F93AF93BF93EF93FF93809170
:10017000960190919701A0919801B09199010197F2
:10018000A109B1098093960190939701A0939801DA
:10019000B0939901892B8A2B8B2B99F0FF91EF91CA
:1001A000BF91AF919F918F917F916F915F914F918F
:1001B0003F912F910F900BBE0F900FBE0F901F908D
:1001C00018950E94A00080913B0190913C01A09164
:1001D0003D01B0913E018093960190939701A093C9
:1001E0009801B0939901DACF60933B0170933C0181
:1001F00080933D0190933E01609396017093970127
:10020000809398019093990108950F931F93CF9332
:10021000DF9300D000D000D0CDB7DEB729833A837A
:100220004B835C8309811A812B812E833C813D8322
:1002300029813A814B815C810E94A80669837A8377
:100240008B839C83602F712F8E819D8129813A81C0
:100250004B815C81232B242B252B21F726960FB66F
:10026000F894DEBF0FBECDBFDF91CF911F910F91EC
:100270000895442349F021E030E002C0220F331FEB
:100280006A95E2F7822B089521E030E002C0220F48
:10029000331F6A95E2F720958223089521E030E02C
:1002A00002C0220F331F6A95E2F78223089540E0CF
:1002B00064E08FEF0E94390182B9000080B160E0F4
:1002C00080950E944E0181117FC080B161E08095D0
:1002D0000E944E0181117AC080B162E080950E9437
:1002E0004E01811175C080B163E080950E944E017E
:1002F000811170C040E065E08FEF0E94390182B942
:10030000000080B160E080950E944E01811164C0C0
:1003100080B161E080950E944E0181115FC080B183
:1003200062E080950E944E0181115AC080B163E065
:1003300080950E944E01811155C040E066E08FEF2C
:100340000E94390182B9000080B160E080950E946E
:100350004E01811149C080B161E080950E944E013B
:10036000811144C080B162E080950E944E018111EC
:100370003FC080B163E080950E944E0181113AC078
:1003800040E067E08FEF0E94390182B9000080B140
:1003900060E080950E944E0181112EC080B161E025
:1003A00080950E944E01811129C080B162E0809544
:1003B0000E944E01811124C080B163E080950E94AB
:1003C0004E0181111FC0089581E3089584E30895CB
:1003D00087E308958AE2089582E3089585E3089506
:1003E00088E3089580E3089583E3089586E30895FC
:1003F00089E3089583E2089581E4089582E40895ED
:1004000083E4089584E4DFCF482F592F30E020E0C3
:1004100002C02F5F3F4F241735074CF490E080E077
:10042000873063E09607ACF700000196F9CF089596
:100430009BB19F7B9BB988B98BB180688BB9000059
:100440008BB18F778BB982E090E00E94040208950F
:1004500081E00E9418020895813120F481580E94A1
:100460001802089581550E941802089584E690E0CC
:100470000E94040288E30E94180286E00E9418028B
:100480008FE00E94180281E00E9418028AE090E04A
:100490000E94040208959BB190649BB988B98BB106
:1004A00080688BB900008BB18F778BB981E090E0C9
:1004B0000E94040208950F931F93CF93062F172FC6
:1004C000883038F080E80E941802CF911F910F9178
:1004D0000895885F880F880F880F0E941802C0E077
:1004E00007C0F801EC0FF11D80810E944B02CF5F25
:1004F000C830B8F3E7CF0F931F93CF93DF93182F34
:10050000C62FD72F0E9428028881882351F001E04E
:10051000010F812F0E942C0289910E944B02102F03
:10052000F3CFDF91CF911F910F9108951F93CF9338
:10053000DF93C62FD72F9881992349F011E0180F28
:100540000E942C0289910E944B02812FF4CFDF91EF
:10055000CF911F91089590E00E945107089590E077
:100560000E94490708950E9436020E94280261E510
:1005700071E082E10E947B028DE10E942C02809159
:100580009401805D0E944B028FE10E942C0208952D
:100590000E943A079C012770307899231CF0C9010A
:1005A0000196089521503109286F3F6F2F5F3F4F0B
:1005B000F6CF019789309105A8F48955984FFC0131
:1005C0000C94CA0681E0089584E0089588E00895B7
:1005D00080E1089580E2089580E4089580E8089518
:1005E00080E9089580E0089582E0089570E0FB01BD
:1005F000ED5CFE4F9081292F20952093BE01209124
:100600000201213079F06E5C7E4FFB012081322F98
:1006100030953093BF01920F90958093BD019093D8
:10062000BB0108956C5C7E4FFB012081322F309519
:100630003093BF01920FF0CF6091940170E08091F0
:10064000950190E00E94F60290E080E00FC026EA5B
:100650002A95F1F700C0FC01E454FE4F208122B935
:10066000FC01E654FE4F208125B9019682309105A8
:1006700074F30895882349F0813079F060919401F2
:10068000809195010E94F60208958091940188233B
:10069000A9F3815080939401F1CF80919401863029
:1006A00068F78F5F80939401E9CFCF93DF93C82FD2
:1006B000D92F209721F48091B201813021F0CE0111
:1006C000DF91CF9108956091940170E08091950140
:1006D00090E00E94F602489B07C04999F0CF90E055
:1006E00080E00E943A03EBCF81E090E00E943A0361
:1006F000F4CF1092B5011092B401ACEBB1E01C92B2
:10070000EAEBF1E0108211961C9211820E943602EF
:100710000E9428026BE571E082E10E947B028DE17C
:100720000E942C028FEF0E94AF028093B30186E1FA
:1007300090E00E9449078093B701853110F0109234
:10074000B7016091B70170E086E190E00E945F0719
:100750008091B701805D0E944B028FE10E942C02C4
:100760008FEF0E94AF020E944B026BE171E080E0CC
:100770000E945B0263E171E081E00E945B026BE03A
:1007800071E082E00E945B0263E071E083E00E941E
:100790005B0287E00E942C0280E00E944B0281E015
:1007A0000E944B0282E00E944B0284E00E944B02B6
:1007B0008091B1010E942C0208958091B70160914F
:1007C000B4017091B501861717060CF0089586E103
:1007D00090E00E94510786E190E00E9449078093D3
:1007E000B7016091B6018FEF0E94AB028091B60114
:1007F0008093B301EBCFCF93C82F6CE370E080E020
:1008000090E00E94F4008CE3809301010E94DD03DC
:100810001092B5011092B401ACEBB1E01C92EAEB7E
:10082000F1E0108211961C9211820E9436020E9401
:100830002802C13081F060E771E085E00E947B0210
:100840008091B6010E944B0268E771E082E10E944C
:100850009602CF91089567E671E085E00E947B02E1
:10086000EFCF0E9436020E94280264E871E081E026
:100870000E947B026AE871E085E10E947B028CE1C4
:100880000E942C028091B6010E944B028EE10E94D0
:100890002C0281E00E942C028091B401805D0E94B4
:1008A0004B0208958091B8019091B9018230910571
:1008B00009F440C080F08330910509F449C00497E1
:1008C000E9F58091B201813009F452C01092B9016A
:1008D0001092B80133C0009759F0019779F5499B00
:1008E00022C082E090E09093B9018093B80126C0C5
:1008F000499909C0489B07C081E090E09093B901F5
:100900008093B8011BC0499B09C0489907C083E088
:1009100090E09093B9018093B80110C01092B90192
:100920001092B8010BC081E090E09093B9018093E0
:10093000B80104C01092B9011092B8018091B801B9
:100940009091B90182309105D1F0049731F1089569
:10095000489B07C084E090E09093B9018093B80170
:10096000EDCF83E090E09093B9018093B801E6CF9A
:1009700084E090E09093B9018093B801DFCF80913B
:10098000B1018A3030F48F5F8093B1010E94790306
:10099000089587E08093B101F9CF81E08093B2019F
:1009A0008091B1018930A1F040F4873061F0883046
:1009B00061F481E08093B60108C08A3031F484E0AC
:1009C0008093B60102C01092B6010E9431040895CE
:1009D00082E08093B601F9CFCF93DF9300D000D0AF
:1009E000CDB7DEB7282F392F2A303105D0F4F901E1
:1009F000E055F84F0C94CA068091B201813011F095
:100A0000822F0FC090E00DC0809123018093BC0124
:100A10000E94C8020E94D90280958093BA0182E0A8
:100A200090E00F900F900F900F90DF91CF9108956D
:100A3000809124018093BC0183E090E0F2CF80910B
:100A400025018093BC0184E090E0EBCF80912601EA
:100A50008093BC0185E090E0E4CF809127018093F2
:100A6000BC0186E090E0DDCF809128018093BC013D
:100A700087E090E0D6CF809129018093BC0188E087
:100A800090E0CFCF80912A018093BC0189E090E073
:100A9000C8CF8091BA019091BE01891781F19091E0
:100AA000BF01891761F18091B4019091B50189303E
:100AB00091054CF01092B20181E090E00E94FB039E
:100AC00080E090E0AECF01969093B5018093B401A1
:100AD000809100018F5F809300010E94310480911A
:100AE0000101855080930101282F30E050E040E063
:100AF000CA01B9010E94F40081E090E092CF109207
:100B0000B20190E080E00E94FB0380E090E089CF9A
:100B100060E081E00E94AB0260E080E00E94AB02F6
:100B20000895CDB7DEB728970FB6F894DEBF0FBE95
:100B3000CDBF8FEF81B91BB884B915B887B918B884
:100B400080EC8AB98FE78BB9A6EAB1E0BA83A983B2
:100B5000EBE9F1E0FC83EB831C924AE050E060E0BB
:100B600070E011964D935D936D937C931497159659
:100B70001D921D921D921C92189785E593E01A967E
:100B80009C938E931997108284E190E0A0E0B0E0EE
:100B900081839283A383B483158216821782108681
:100BA0008CEE94E09287818787E08093B10190E09A
:100BB00080E00E9481060E943E0780910101282F5B
:100BC00030E050E040E02D833E834F835887CA01D8
:100BD000B9010E94F4000E9479000E94790381E02B
:100BE00080939501109294011092B9011092B8016E
:100BF00009C08FEF82B915B80E9452048091B201EA
:100C0000813029F08091B2018111F8CFF2CF0E949A
:100C10001C03F12CE12C0FC0F80185819681A7817E
:100C2000B0850196A11DB11D85839683A783B087EA
:100C3000FFEFEF1AFF0A22E0E216F10470F5F70168
:100C4000EE0FFF1F41E050E04C0F5D1FE40FF51F5A
:100C500000811181D80115964D915D916D917C9126
:100C6000189711968D919D910D90BC91A02D4817CC
:100C700059076A077B0781F6D8011996ED91FC9117
:100C80001A978C91082E000C990B0995F801808316
:100C90001582168217821086BFCF4A9B07C08091AB
:100CA0009A018823E1F310929A01ACCF1092B2011D
:100CB0001092B5011092B401ACEBB1E01C92EAEBDA
:100CC000F1E0108211961C9211821092940187E03B
:100CD0008093B1010E94790390E080E00EC0FC0196
:100CE000EE0FFF1F41E050E04C0F5D1FE40FF51FBA
:100CF0000190F081E02D108201968230910578F309
:100D0000CECFCF93DF9300D000D0CDB7DEB7FC01BC
:100D10000FB6F8948091C0019091C101A091C201D9
:100D2000B091C30189839A83AB83BC830FBE309794
:100D300021F080839183A283B38369817A818B813F
:100D40009C810F900F900F900F90DF91CF9108959D
:100D5000A1E21A2EAA1BBB1BFD010DC0AA1FBB1FBF
:100D6000EE1FFF1FA217B307E407F50720F0A21B31
:100D7000B30BE40BF50B661F771F881F991F1A949E
:100D800069F760957095809590959B01AC01BD01C8
:100D9000CF010895EE0FFF1F0024001C0BBE07902B
:100DA000F691E02D0994CF92DF92EF92FF92CF93CC
:100DB000DF93CDB7DEB72A970FB6F894DEBF0FBE2C
:100DC000CDBF89879A87A985BA852D913D914D918F
:100DD0005C9129833A834B835C83232B242B252B23
:100DE00041F424E239ED4BE557E029833A834B8304
:100DF0005C8369817A818B819C812DE133EF41E0B5
:100E000050E00E94640769017A01A7EAB1E49B01FE
:100E1000AC010E94830769837A838B839C83ACEE49
:100E2000B4EFA70196010E9491079B01AC01898153
:100E30009A81AB81BC81820F931FA41FB51FB7FF9E
:100E400003C00197A109B048E985FA8580839183A1
:100E5000A283B3839F772A960FB6F894DEBF0FBEA6
:100E6000CDBFDF91CF91FF90EF90DF90CF900895AD
:100E70000C94D3068DE491E00C94D306B0E0A0E08E
:100E800080934D0190934E01A0934F01B093500178
:100E90000895F999FECF92BD81BDF89A992780B542
:100EA0000895262FF999FECF1FBA92BD81BD20BDAE
:100EB0000FB6F894FA9AF99A0FBE019608950E9417
:100EC0005107272F0C945207052E97FB1EF4009410
:100ED0000E947B0757FD07D00E94A80607FC03D09D
:100EE0004EF40C947B0750954095309521953F4FDB
:100EF0004F4F5F4F089590958095709561957F4F06
:100F00008F4F9F4F08950E949607A59F900DB49F05
:100F1000900DA49F800D911D11240895B7FF0C948E
:100F200083070E948307821B930B0895A29FB00141
:100F3000B39FC001A39F700D811D1124911DB29F0D
:100F4000700D811D1124911D0895F894FFCFE202C8
:100F5000F402E402E602E802EA02EC02EE02F00227
:100F6000FC04040518051F0526052D0534053B0561
:040F700042054905E8
:100F7400033C0111090402050A1100040411001FB5
:100F8400001504110A040E000A000A04040E1100DC
:100F94001F04048040201008040201010204081008
:100FA400204080010204081020408001000000005D
:100FB40000000200000000670000000000010000C3
:100FC40000637572656E74593A20006869676873C6
:100FD400636F72653A200057494E4E45523A2000DD
:100FE4004C4F5345523A2000504C415920414741FF
:100FF400494E3F0053636F726500506C61796572AE
:041004003A2000008E
:00000001FF
