:100000000C9446000C9465000C9465000C946500FB
:100010000C9465000C9465000C9465000C946500CC
:100020000C9465000C9465000C9465000C946500BC
:100030000C9465000C94A4000C9465000C9465006D
:100040000C9465000C9465000C9465000C9465009C
:100050000C9465000C9465000C9465000C9465008C
:100060000C9465000C9465000C9465000C9465007C
:100070000C9465000C9465000C9465000C9465006C
:100080000C9465000C9465000C94650011241FBE4F
:10009000CFEFD0E4DEBFCDBF11E0A0E0B1E0EEE8ED
:1000A000F8E000E00BBF02C007900D92AE33B1073D
:1000B000D9F721E0AEE3B1E001C01D92A135B2074E
:1000C000E1F70E9492030C9445040C940000CF9336
:1000D000C82F8A3051F09091C00095FFFCCFC0939B
:1000E000C60090E080E0CF9108958DE00E94670007
:1000F000F2CF8BE0809381008FE090E090938900B5
:100100008093880082E080936F00109285001092A7
:1001100084008091200190912101A0912201B09151
:10012000230180933E0190933F01A0934001B0933F
:1001300041018FB780688FBF0895109281000895A4
:1001400081E08093420108951F920F920FB60F92A3
:1001500011240BB60F922F933F934F935F936F939E
:100160007F938F939F93AF93BF93EF93FF93809170
:100170003E0190913F01A0914001B0914101019752
:10018000A109B10980933E0190933F01A0934001E2
:10019000B0934101892B8A2B8B2B99F0FF91EF9122
:1001A000BF91AF919F918F917F916F915F914F918F
:1001B0003F912F910F900BBE0F900FBE0F901F908D
:1001C00018950E94A0008091200190912101A0919A
:1001D0002201B091230180933E0190933F01A093AF
:1001E0004001B0934101DACF609320017093210167
:1001F000809322019093230160933E0170933F010D
:10020000809340019093410108950F931F93CF93E2
:10021000DF9300D000D000D0CDB7DEB729833A837A
:100220004B835C8309811A812B812E833C813D8322
:1002300029813A814B815C810E940D0469837A8314
:100240008B839C83602F712F8E819D8129813A81C0
:100250004B815C81232B242B252B21F726960FB66F
:10026000F894DEBF0FBECDBFDF91CF911F910F91EC
:100270000895442349F021E030E002C0220F331FEB
:100280006A95E2F7822B089521E030E002C0220F48
:10029000331F6A95E2F720958223089521E030E02C
:1002A00002C0220F331F6A95E2F78223089540E0CF
:1002B00064E08FEF0E94390182B9000080B160E0F4
:1002C00080950E944E0181117FC080B161E08095D0
:1002D0000E944E0181117AC080B162E080950E9437
:1002E0004E01811175C080B163E080950E944E017E
:1002F000811170C040E065E08FEF0E94390182B942
:10030000000080B160E080950E944E01811164C0C0
:1003100080B161E080950E944E0181115FC080B183
:1003200062E080950E944E0181115AC080B163E065
:1003300080950E944E01811155C040E066E08FEF2C
:100340000E94390182B9000080B160E080950E946E
:100350004E01811149C080B161E080950E944E013B
:10036000811144C080B162E080950E944E018111EC
:100370003FC080B163E080950E944E0181113AC078
:1003800040E067E08FEF0E94390182B9000080B140
:1003900060E080950E944E0181112EC080B161E025
:1003A00080950E944E01811129C080B162E0809544
:1003B0000E944E01811124C080B163E080950E94AB
:1003C0004E0181111FC0089581E3089584E30895CB
:1003D00087E308958AE2089582E3089585E3089506
:1003E00088E3089580E3089583E3089586E30895FC
:1003F00089E3089583E2089581E4089582E40895ED
:1004000083E4089584E4DFCF482F592F30E020E0C3
:1004100002C02F5F3F4F241735074CF490E080E077
:10042000873063E09607ACF700000196F9CF089596
:100430009BB19F7B9BB988B98BB180688BB9000059
:100440008BB18F778BB982E090E00E94040208950F
:1004500081E00E9418020895813120F481580E94A1
:100460001802089581550E941802089584E690E0CC
:100470000E94040288E30E94180286E00E9418028B
:100480008FE00E94180281E00E9418028AE090E04A
:100490000E94040208959BB190649BB988B98BB106
:1004A00080688BB900008BB18F778BB981E090E0C9
:1004B0000E94040208950F931F93CF93062F172FC6
:1004C000883038F080E80E941802CF911F910F9178
:1004D0000895885F880F880F880F0E941802C0E077
:1004E00007C0F801EC0FF11D80810E944B02CF5F25
:1004F000C830B8F3E7CF0F931F93CF93DF93182F34
:10050000C62FD72F0E9428028881882351F001E04E
:10051000010F812F0E942C0289910E944B02102F03
:10052000F3CFDF91CF911F910F9108958330910503
:1005300009F457C00CF044C08130910509F44CC057
:100540008230910529F4019B48C087E090E008952E
:100550000097A9F5009908C0019B06C0029B04C042
:10056000039B02C0049947C0009B08C0019906C0C4
:10057000029B04C0039B02C0049940C0009B08C0BA
:10058000019B06C0029904C0039B02C0049939C0B4
:10059000009B08C0019B06C0029B04C0039902C0D7
:1005A000049932C0009B19C0019B17C0029B15C063
:1005B000039B13C0049911C085E090E00EC008951C
:1005C0008430910599F08530910529F4049B05C08C
:1005D0008AE090E008950895009B089586E090E0F9
:1005E0000895029BFACF88E090E00895039BF5CF31
:1005F00089E090E0089581E090E0089582E090E045
:10060000089583E090E0089584E090E0089590E0FC
:100610000E943704089590E00E942F040895809569
:1006200050E040E013C098E095B995B1282F30E034
:10063000042E02C0359527950A94E2F72170292BE4
:1006400025B995B1926095B94F5F5F4F483051051C
:1006500054F385B1846085B912B8089592B1982B8E
:1006600092B985B16095682B65B90895CF93DF93F2
:10067000C82FD92F209721F0CE01DF91CF91089577
:1006800067E081E00E94070360E080E00E940703CA
:1006900065E070E081E090E00E942E03EDCFCF9303
:1006A0000E9436020E94280262E371E082E10E9409
:1006B0007B028DE10E942C0281E00E940B03C82F77
:1006C0008093500180E00E940B0380934E0180E3F1
:1006D0008C0F0E944B028FE10E942C0280914E01F0
:1006E0000E944B0268E171E080E00E945B0260E1E1
:1006F00071E081E00E945B0260E071E083E00E94B3
:100700005B0287E00E942C0280E00E944B0281E0A5
:100710000E944B0282E00E944B0283E00E944B0247
:10072000CF91089500D0CDB7DEB78FEF84B915B85B
:1007300081B912B887B918B88AB91BB8E3E4F1E0F7
:10074000FA83E98310828EE190E0A0E0B0E081833B
:100750009283A383B4838AE090E0A0E0B0E0858335
:100760009683A783B08786E393E0928781876AE0C8
:1007700070E080E090E00E94F4000E9479000E9406
:100780004F0340C0F701EE0FFF1F81E090E08C0F98
:100790009D1FE80FF91F00811181D80115964D9119
:1007A0005D916D917C91189711968D919D910D9011
:1007B000BC91A02D481759076A077B0781F0F80103
:1007C00085819681A781B0850196A11DB11D858384
:1007D0009683A783B087FFEFEF1AFF0A15C0D801F1
:1007E0001996ED91FC911A978C91082E000C990B9B
:1007F0000995F80180831582168217821086DFCF53
:1008000010924201F12CE12CE114F10409F4BACF69
:10081000809142018823E1F3F3CFA1E21A2EAA1BB3
:10082000BB1BFD010DC0AA1FBB1FEE1FFF1FA217A0
:10083000B307E407F50720F0A21BB30BE40BF50B9D
:10084000661F771F881F991F1A9469F76095709526
:10085000809590959B01AC01BD01CF010895F99958
:10086000FECF92BD81BDF89A992780B50895262FB5
:10087000F999FECF1FBA92BD81BD20BD0FB6F89485
:0E088000FA9AF99A0FBE01960895F894FFCFE8
:10088E0011090402050A1100040411001F001504C9
:10089E00110A040E000A000A1F1F151F001F1F1F3A
:1008AE0001000000000000020000000067000000D0
:0E08BE0000006869676873636F72653A200016
:00000001FF
