:100000000C9446000C9465000C9465000C946500FB
:100010000C9465000C9465000C9465000C946500CC
:100020000C9465000C9465000C9465000C946500BC
:100030000C9465000C94A4000C9465000C9465006D
:100040000C9465000C9465000C9465000C9465009C
:100050000C9465000C9465000C9465000C9465008C
:100060000C9465000C9465000C9465000C9465007C
:100070000C9465000C9465000C9465000C9465006C
:100080000C9465000C9465000C94650011241FBE4F
:10009000CFEFD0E4DEBFCDBF11E0A0E0B1E0ECE0F7
:1000A000FEE000E00BBF02C007900D92AA38B10736
:1000B000D9F721E0AAE8B1E001C01D92A93BB2073F
:1000C000E1F70E941E050C94F2060C940000CF93F9
:1000D000C82F8A3051F09091C00095FFFCCFC0939B
:1000E000C60090E080E0CF9108958DE00E94670007
:1000F000F2CF8BE0809381008FE090E090938900B5
:100100008093880082E080936F00109285001092A7
:1001100084008091390190913A01A0913B01B09106
:100120003C0180938C0190938D01A0938E01B0933C
:100130008F018FB780688FBF089510928100089556
:1001400081E08093900108951F920F920FB60F9255
:1001500011240BB60F922F933F934F935F936F939E
:100160007F938F939F93AF93BF93EF93FF93809170
:100170008C0190918D01A0918E01B0918F0101971A
:10018000A109B10980938C0190938D01A0938E01F8
:10019000B0938F01892B8A2B8B2B99F0FF91EF91D4
:1001A000BF91AF919F918F917F916F915F914F918F
:1001B0003F912F910F900BBE0F900FBE0F901F908D
:1001C00018950E94A0008091390190913A01A09168
:1001D0003B01B0913C0180938C0190938D01A093E1
:1001E0008E01B0938F01DACF6093390170933A0199
:1001F00080933B0190933C0160938C0170938D013F
:1002000080938E0190938F0108950F931F93CF9346
:10021000DF9300D000D000D0CDB7DEB729833A837A
:100220004B835C8309811A812B812E833C813D8322
:1002300029813A814B815C810E94FA0569837A8326
:100240008B839C83602F712F8E819D8129813A81C0
:100250004B815C81232B242B252B21F726960FB66F
:10026000F894DEBF0FBECDBFDF91CF911F910F91EC
:100270000895442349F021E030E002C0220F331FEB
:100280006A95E2F7822B089521E030E002C0220F48
:10029000331F6A95E2F720958223089521E030E02C
:1002A00002C0220F331F6A95E2F78223089540E0CF
:1002B00064E08FEF0E94390182B9000080B160E0F4
:1002C00080950E944E0181117FC080B161E08095D0
:1002D0000E944E0181117AC080B162E080950E9437
:1002E0004E01811175C080B163E080950E944E017E
:1002F000811170C040E065E08FEF0E94390182B942
:10030000000080B160E080950E944E01811164C0C0
:1003100080B161E080950E944E0181115FC080B183
:1003200062E080950E944E0181115AC080B163E065
:1003300080950E944E01811155C040E066E08FEF2C
:100340000E94390182B9000080B160E080950E946E
:100350004E01811149C080B161E080950E944E013B
:10036000811144C080B162E080950E944E018111EC
:100370003FC080B163E080950E944E0181113AC078
:1003800040E067E08FEF0E94390182B9000080B140
:1003900060E080950E944E0181112EC080B161E025
:1003A00080950E944E01811129C080B162E0809544
:1003B0000E944E01811124C080B163E080950E94AB
:1003C0004E0181111FC0089581E3089584E30895CB
:1003D00087E308958AE2089582E3089585E3089506
:1003E00088E3089580E3089583E3089586E30895FC
:1003F00089E3089583E2089581E4089582E40895ED
:1004000083E4089584E4DFCF482F592F30E020E0C3
:1004100002C02F5F3F4F241735074CF490E080E077
:10042000873063E09607ACF700000196F9CF089596
:100430009BB19F7B9BB988B98BB180688BB9000059
:100440008BB18F778BB982E090E00E94040208950F
:1004500081E00E9418020895813120F481580E94A1
:100460001802089581550E941802089584E690E0CC
:100470000E94040288E30E94180286E00E9418028B
:100480008FE00E94180281E00E9418028AE090E04A
:100490000E94040208959BB190649BB988B98BB106
:1004A00080688BB900008BB18F778BB981E090E0C9
:1004B0000E94040208950F931F93CF93062F172FC6
:1004C000883038F080E80E941802CF911F910F9178
:1004D0000895885F880F880F880F0E941802C0E077
:1004E00007C0F801EC0FF11D80810E944B02CF5F25
:1004F000C830B8F3E7CF0F931F93CF93DF93182F34
:10050000C62FD72F0E9428028881882351F001E04E
:10051000010F812F0E942C0289910E944B02102F03
:10052000F3CFDF91CF911F910F9108951F93CF9338
:10053000DF93C62FD72F9881992349F011E0180F28
:100540000E942C0289910E944B02812FF4CFDF91EF
:10055000CF911F91089590E00E94A306089590E026
:100560000E949B0608950E9436020E9428026FE4B2
:1005700071E082E10E947B028DE10E942C02809159
:100580008A01805D0E944B028FE10E942C02089537
:100590000E948C069C012770307899231CF0C901B9
:1005A0000196089521503109286F3F6F2F5F3F4F0B
:1005B000F6CF01978830910598F48C50994FFC0143
:1005C0000C941C0681E0089584E0089588E0089565
:1005D00080E1089580E2089580E4089580E8089518
:1005E00080E0089582E0089570E0FB01EF5CFE4F2B
:1005F0009081292F20952093B30120910001213073
:1006000079F0605D7E4FFB012081322F3095309371
:10061000B401920F90958093B2019093B001089528
:100620006E5C7E4FFB012081322F30953093B401F8
:10063000920FF0CF60918A0170E080918B0190E081
:100640000E94F40290E080E00FC026EA2A95F1F7BC
:1006500000C0FC01EF54FE4F208122B9FC01E1559E
:10066000FE4F208125B901968230910574F30895DB
:10067000882349F0813079F060918A0180918B0163
:100680000E94F402089580918A018823A9F3815081
:1006900080938A01F1CF80918A01863068F78F5F5D
:1006A00080938A01E9CFCF93DF93C82FD92F20976A
:1006B00021F0CE01DF91CF91089560918A0170E021
:1006C00080918B0190E00E94F402489B07C04999F9
:1006D000F0CF90E080E00E943803EBCF81E090E023
:1006E0000E943803F4CF1092AA01A1EBB1E01C9252
:1006F000EFEAF1E0108211961C9211820E943602FC
:100700000E94280269E571E085E00E947B028091E9
:10071000AB010E944B0262E671E082E10E94960208
:100720000895CF931092AA01A1EBB1E01C92EFEAD9
:10073000F1E0108211961C9211820E9436020E94F2
:1007400028026EE671E082E10E947B028DE10E9448
:100750002C0265E081E00E94AB0262E080E00E9432
:10076000AB0281E00E94AF02C82F8093AC0180E011
:100770000E94AF028093A90180E38C0F0E944B027C
:100780008FE10E942C028091A9010E944B0269E135
:1007900071E080E00E945B0261E171E081E00E9413
:1007A0005B0269E071E082E00E945B0261E071E05F
:1007B00083E00E945B0287E00E942C0280E00E949E
:1007C0004B0281E00E944B0282E00E944B0283E0D8
:1007D0000E944B028091A7010E942C02CF910895A4
:1007E0000E9436020E9428026AE771E081E00E94BE
:1007F0007B0260E871E085E10E947B028CE10E944F
:100800002C028091AB010E944B028EE10E942C02CF
:1008100081E00E942C028091AA01805D0E944B021F
:1008200008958091AD019091AE018230910509F457
:1008300040C080F08330910509F449C00497E9F580
:100840008091A801813009F452C01092AE0110923B
:10085000AD0133C0009759F0019779F5499B22C04B
:1008600082E090E09093AE018093AD0126C049995B
:1008700009C0489B07C081E090E09093AE0180934F
:10088000AD011BC0499B09C0489907C083E090E0B7
:100890009093AE018093AD0110C01092AE01109202
:1008A000AD010BC081E090E09093AE018093AD016B
:1008B00004C01092AE011092AD018091AD019091F3
:1008C000AE0182309105D1F0049731F10895489B33
:1008D00007C084E090E09093AE018093AD01EDCF2E
:1008E00083E090E09093AE018093AD01E6CF84E089
:1008F00090E09093AE018093AD01DFCF8091A7018E
:100900008A3030F48F5F8093A7010E94910308958D
:1009100087E08093A701F9CF81E08093A8018091BF
:10092000A7018930A1F040F4873061F0883061F48C
:1009300081E08093AB0108C08A3031F484E0809379
:10094000AB0102C01092AB010E94F003089582E057
:100950008093AB01F9CF282F392F2A30310508F0C9
:100960006CC0F901E450F94F0C941C068091A80169
:10097000813011F0822F089590E008958091210137
:100980008093B1010E94C8020E94D9028095809391
:10099000AF0182E090E00895809122018093B1013F
:1009A00083E090E00895809123018093B10184E079
:1009B00090E00895809124018093B10185E090E05A
:1009C0000895809125018093B10186E090E008951B
:1009D000809126018093B10187E090E00895809195
:1009E00027018093B10188E090E00895809128016B
:1009F0008093B10189E090E008958091AF019091DA
:100A0000B301891739F09091B401891719F080E08A
:100A100090E008958091AA01893038F01092A801E1
:100A20000E94730380E090E008958F5F8093AA0195
:100A30000E94F00381E090E00895089500D000D076
:100A4000CDB7DEB71FEF11B91BB814B915B817B978
:100A500018B880EC8AB98FE78BB9ACE9B1E0BA83FA
:100A6000A983E1E9F1E0FC83EB831C924AE050E0CA
:100A700060E070E011964D935D936D937C931497B5
:100A800015964D935D936D937C93189783E593E052
:100A90001A969C938E931997108282E390E0A0E0BF
:100AA000B0E081839283A383B48315821682178278
:100AB00010868BEA94E09287818787E08093A70174
:100AC00090E080E00E94D3050E9490066EE170E005
:100AD00080E090E00E94F4000E9479000E9491035F
:100AE00081E080938B0110928A011092AE011092E6
:100AF000AD0112B906C00E9411048091A801813095
:100B000029F08091A8018111F8CFF5CF0E941A0336
:100B1000F12CE12C0FC0F80185819681A781B08569
:100B20000196A11DB11D85839683A783B087FFEF32
:100B3000EF1AFF0A82E0E816F10470F5F701EE0FF4
:100B4000FF1F81E090E08C0F9D1FE80FF91F0081CF
:100B50001181D80115964D915D916D917C911897F9
:100B600011968D919D910D90BC91A02D481759071C
:100B70006A077B0781F6D8011996ED91FC911A97C7
:100B80008C91082E000C990B0995F8018083158231
:100B9000168217821086BFCF809190018823E1F3DF
:100BA00010929001AECFCF93DF9300D000D0CDB79D
:100BB000DEB7FC010FB6F8948091B5019091B601B3
:100BC000A091B701B091B80189839A83AB83BC83AC
:100BD0000FBE309721F080839183A283B383698114
:100BE0007A818B819C810F900F900F900F90DF91F5
:100BF000CF910895A1E21A2EAA1BBB1BFD010DC0C7
:100C0000AA1FBB1FEE1FFF1FA217B307E407F507BC
:100C100020F0A21BB30BE40BF50B661F771F881F98
:100C2000991F1A9469F760957095809590959B012E
:100C3000AC01BD01CF010895EE0FFF1F0024001C81
:100C40000BBE0790F691E02D0994CF92DF92EF92C0
:100C5000FF92CF93DF93CDB7DEB72A970FB6F89404
:100C6000DEBF0FBECDBF89879A87A985BA852D9132
:100C70003D914D915C9129833A834B835C83232B77
:100C8000242B252B41F424E239ED4BE557E0298351
:100C90003A834B835C8369817A818B819C812DE1CE
:100CA00033EF41E050E00E94B10669017A01A7EA02
:100CB000B1E49B01AC010E94D00669837A838B83E7
:100CC0009C83ACEEB4EFA70196010E94DE069B0167
:100CD000AC0189819A81AB81BC81820F931FA41FD3
:100CE000B51FB7FF03C00197A109B048E985FA8590
:100CF00080839183A283B3839F772A960FB6F8945B
:100D0000DEBF0FBECDBFDF91CF91FF90EF90DF90A0
:100D1000CF9008950C9425068BE491E00C94250661
:100D2000B0E0A0E080934B0190934C01A0934D0163
:100D3000B0934E010895F999FECF92BD81BDF89A06
:100D4000992780B50895262FF999FECF1FBA92BD35
:100D500081BD20BD0FB6F894FA9AF99A0FBE01969C
:100D60000895052E97FB1EF400940E94C80657FDB7
:100D700007D00E94FA0507FC03D04EF40C94C80675
:100D800050954095309521953F4F4F4F5F4F0895B7
:100D900090958095709561957F4F8F4F9F4F0895E7
:100DA0000E94E306A59F900DB49F900DA49F800D17
:100DB000911D11240895B7FF0C94D0060E94D0060F
:100DC000821B930B0895A29FB001B39FC001A39F04
:100DD000700D811D1124911DB29F700D811D112474
:100DE000911D0895F894FFCFE202F202E402E602B8
:100DF000E802EA02EC02EE02B604BE04CC04D3041C
:0C0E0000DA04E104E804EF04F604FD0449
:100E0C000111090402050A1100040411001F001548
:100E1C0004110A040E000A000A04040E11001F0437
:100E2C000480402010080402010102040810204034
:100E3C008001020408102040800100000000000026
:100E4C0002000000006700000000000100000063C9
:100E5C007572656E74593A200057494E4E45523A98
:100E6C002000504C415920414741494E3F00686990
:100E7C00676873636F72653A200053636F72650025
:0A0E8C00506C617965723A20000095
:00000001FF
