:100000000C9453000C9472000C9472000C947200C7
:100010000C9472000C9472000C9472000C94720098
:100020000C9472000C9472000C9472000C94720088
:100030000C9472000C9472000C9472000C94720078
:100040000C9472000C9472000C9472000C94720068
:100050000C9472000C9472000C9472000C94720058
:100060000C9472000C9472000C9472000C94720048
:100070000C9472000C9472000C9472000C94720038
:100080000C9472000C9472000C9472009100980011
:10009000A800B800C800D800E800F800080118015E
:1000A00028014801380111241FBECFEFD0E4DEBF84
:1000B000CDBF11E0A0E0B1E0E4E2F3E000E00BBF6F
:1000C00002C007900D92AE30B107D9F711E0AEE053
:1000D000B1E001C01D92A131B107E1F70E947F019B
:1000E0000C9490010C940000CF93C82F8A3019F41F
:1000F0008DE00E9474009091C00095FFFCCFC093EA
:10010000C60080E090E0CF910895E0910F01F0915A
:100110001001ED30F10508F0CAC0EA5BFF4F0C9406
:10012000870181E090E09093100180930F01BFC0A0
:10013000009907C082E090E09093100180930F0136
:10014000B6C081E090E09093100180930F01AFC0A2
:10015000009B07C083E090E09093100180930F0113
:10016000A6C082E090E09093100180930F019FC0A1
:10017000009907C084E090E09093100180930F01F4
:1001800096C083E090E09093100180930F018FC0A0
:10019000009B07C085E090E09093100180930F01D1
:1001A00086C084E090E09093100180930F017FC09F
:1001B000009907C086E090E09093100180930F01B2
:1001C00076C085E090E09093100180930F016FC09E
:1001D000009B07C087E090E09093100180930F018F
:1001E00066C086E090E09093100180930F015FC09D
:1001F000009907C088E090E09093100180930F0170
:1002000056C087E090E09093100180930F014FC09B
:10021000009B07C089E090E09093100180930F014C
:1002200046C088E090E09093100180930F013FC09A
:10023000009907C08AE090E09093100180930F012D
:1002400036C089E090E09093100180930F012FC099
:10025000009B07C08CE090E09093100180930F0109
:1002600026C08AE090E09093100180930F011FC098
:10027000009907C08BE090E09093100180930F01EC
:1002800016C08CE090E09093100180930F010FC096
:10029000009B07C081E090E09093100180930F01D4
:1002A00006C08BE090E09093100180930F01809145
:1002B0000F019091100185309105A9F030F4813043
:1002C000910561F0039761F008958930910589F0F7
:1002D0008C30910589F0079789F408C018B8089503
:1002E00085E188B9089589E288B9089583E388B9DA
:1002F00008958CE088B908958DE288B9089511B801
:100300008FEF87B982B918B80E948500FDCFEE0F34
:10031000FF1F0024001C0BBE0790F691E02D0994EE
:04032000F894FFCF7F
:0E032400000000020000000074000000000055
:00000001FF
